{
  "_format": "hh-sol-artifact-1",
  "contractName": "HealthInfo",
  "sourceName": "contracts/HealthInfo.sol",
  "abi": [
    {
      "anonymous": false,
      "inputs": [
        {
          "indexed": true,
          "internalType": "address",
          "name": "owner",
          "type": "address"
        },
        {
          "indexed": true,
          "internalType": "address",
          "name": "requester",
          "type": "address"
        }
      ],
      "name": "AccessRequestAccepted",
      "type": "event"
    },
    {
      "anonymous": false,
      "inputs": [
        {
          "indexed": true,
          "internalType": "address",
          "name": "owner",
          "type": "address"
        },
        {
          "indexed": true,
          "internalType": "address",
          "name": "requester",
          "type": "address"
        }
      ],
      "name": "AccessRequestRejected",
      "type": "event"
    },
    {
      "anonymous": false,
      "inputs": [
        {
          "indexed": true,
          "internalType": "address",
          "name": "owner",
          "type": "address"
        },
        {
          "indexed": true,
          "internalType": "address",
          "name": "requester",
          "type": "address"
        },
        {
          "indexed": false,
          "internalType": "string",
          "name": "note",
          "type": "string"
        }
      ],
      "name": "AccessRequested",
      "type": "event"
    },
    {
      "anonymous": false,
      "inputs": [
        {
          "indexed": true,
          "internalType": "address",
          "name": "owner",
          "type": "address"
        },
        {
          "indexed": true,
          "internalType": "address",
          "name": "permissionedUser",
          "type": "address"
        }
      ],
      "name": "AccessRevoked",
      "type": "event"
    },
    {
      "anonymous": false,
      "inputs": [
        {
          "indexed": true,
          "internalType": "address",
          "name": "owner",
          "type": "address"
        },
        {
          "indexed": false,
          "internalType": "string",
          "name": "ipfsHash",
          "type": "string"
        }
      ],
      "name": "HealthRecordUpdated",
      "type": "event"
    },
    {
      "inputs": [
        {
          "internalType": "address",
          "name": "",
          "type": "address"
        },
        {
          "internalType": "address",
          "name": "",
          "type": "address"
        }
      ],
      "name": "accessRequestNotes",
      "outputs": [
        {
          "internalType": "string",
          "name": "",
          "type": "string"
        }
      ],
      "stateMutability": "view",
      "type": "function"
    },
    {
      "inputs": [
        {
          "internalType": "address",
          "name": "requester",
          "type": "address"
        }
      ],
      "name": "denyAccessRequest",
      "outputs": [],
      "stateMutability": "nonpayable",
      "type": "function"
    },
    {
      "inputs": [],
      "name": "getAccessList",
      "outputs": [
        {
          "internalType": "address[]",
          "name": "",
          "type": "address[]"
        }
      ],
      "stateMutability": "view",
      "type": "function"
    },
    {
      "inputs": [],
      "name": "getAccessRequests",
      "outputs": [
        {
          "internalType": "address[]",
          "name": "",
          "type": "address[]"
        }
      ],
      "stateMutability": "view",
      "type": "function"
    },
    {
      "inputs": [
        {
          "internalType": "address",
          "name": "recordOwner",
          "type": "address"
        }
      ],
      "name": "getHealthRecord",
      "outputs": [
        {
          "internalType": "string",
          "name": "",
          "type": "string"
        }
      ],
      "stateMutability": "view",
      "type": "function"
    },
    {
      "inputs": [],
      "name": "getUpdates",
      "outputs": [
        {
          "internalType": "address[]",
          "name": "",
          "type": "address[]"
        },
        {
          "internalType": "uint256[]",
          "name": "",
          "type": "uint256[]"
        },
        {
          "internalType": "string[]",
          "name": "",
          "type": "string[]"
        }
      ],
      "stateMutability": "view",
      "type": "function"
    },
    {
      "inputs": [
        {
          "internalType": "address",
          "name": "requester",
          "type": "address"
        }
      ],
      "name": "grantAccess",
      "outputs": [],
      "stateMutability": "nonpayable",
      "type": "function"
    },
    {
      "inputs": [
        {
          "internalType": "address",
          "name": "owner",
          "type": "address"
        }
      ],
      "name": "hasAccess",
      "outputs": [
        {
          "internalType": "bool",
          "name": "",
          "type": "bool"
        }
      ],
      "stateMutability": "view",
      "type": "function"
    },
    {
      "inputs": [
        {
          "internalType": "address",
          "name": "owner",
          "type": "address"
        }
      ],
      "name": "hasRequestedAccess",
      "outputs": [
        {
          "internalType": "bool",
          "name": "",
          "type": "bool"
        }
      ],
      "stateMutability": "view",
      "type": "function"
    },
    {
      "inputs": [
        {
          "internalType": "address",
          "name": "recordOwner",
          "type": "address"
        },
        {
          "internalType": "string",
          "name": "note",
          "type": "string"
        }
      ],
      "name": "requestAccess",
      "outputs": [],
      "stateMutability": "nonpayable",
      "type": "function"
    },
    {
      "inputs": [
        {
          "internalType": "address",
          "name": "permissionedUser",
          "type": "address"
        }
      ],
      "name": "revokeAccess",
      "outputs": [],
      "stateMutability": "nonpayable",
      "type": "function"
    },
    {
      "inputs": [
        {
          "internalType": "string",
          "name": "_ipfsHash",
          "type": "string"
        },
        {
          "internalType": "address",
          "name": "owner",
          "type": "address"
        }
      ],
      "name": "setOwner",
      "outputs": [],
      "stateMutability": "nonpayable",
      "type": "function"
    },
    {
      "inputs": [
        {
          "internalType": "address",
          "name": "owner",
          "type": "address"
        }
      ],
      "name": "updateHealthRecord",
      "outputs": [],
      "stateMutability": "nonpayable",
      "type": "function"
    }
  ],
  "bytecode": "0x6080604052348015600f57600080fd5b5061361f8061001f6000396000f3fe608060405234801561001057600080fd5b50600436106100cf5760003560e01c806385e685311161008c578063a8a1d27311610066578063a8a1d273146101fc578063ad3f65d31461021c578063b026a98714610238578063bd8f175214610268576100cf565b806385e68531146101925780638d5ddbb3146101ae57806395a078e8146101cc576100cf565b8063092b25e9146100d45780630ae5e739146100f05780632f6d4a591461010c578063308d3b62146101285780634ad881ea1461015857806355b63a9414610174575b600080fd5b6100ee60048036038101906100e991906127f2565b610298565b005b61010a6004803603810190610105919061284e565b610508565b005b6101266004803603810190610121919061287b565b610c25565b005b610142600480360381019061013d91906128d7565b61111f565b60405161014f9190612996565b60405180910390f35b610172600480360381019061016d919061284e565b6111cc565b005b61017c6116eb565b6040516101899190612a76565b60405180910390f35b6101ac60048036038101906101a7919061284e565b6117b6565b005b6101b6611cd5565b6040516101c39190612a76565b60405180910390f35b6101e660048036038101906101e1919061284e565b611da0565b6040516101f39190612ab3565b60405180910390f35b610204611e33565b60405161021393929190612ca2565b60405180910390f35b6102366004803603810190610231919061284e565b612148565b005b610252600480360381019061024d919061284e565b6123d5565b60405161025f9190612ab3565b60405180910390f35b610282600480360381019061027d919061284e565b612468565b60405161028f9190612996565b60405180910390f35b60008060008373ffffffffffffffffffffffffffffffffffffffff1673ffffffffffffffffffffffffffffffffffffffff168152602001908152602001600020600101805490501461031f576040517f08c379a000000000000000000000000000000000000000000000000000000000815260040161031690612d3a565b60405180910390fd5b60008060008373ffffffffffffffffffffffffffffffffffffffff1673ffffffffffffffffffffffffffffffffffffffff168152602001908152602001600020905060018060008473ffffffffffffffffffffffffffffffffffffffff1673ffffffffffffffffffffffffffffffffffffffff16815260200190815260200160002060008473ffffffffffffffffffffffffffffffffffffffff1673ffffffffffffffffffffffffffffffffffffffff16815260200190815260200160002060006101000a81548160ff021916908315150217905550828160000190816104069190612f66565b508060010160405180606001604052803373ffffffffffffffffffffffffffffffffffffffff1681526020014281526020016040518060400160405280601781526020017f496e697469616c207265636f7264206372656174696f6e000000000000000000815250815250908060018154018082558091505060019003906000526020600020906003020160009091909190915060008201518160000160006101000a81548173ffffffffffffffffffffffffffffffffffffffff021916908373ffffffffffffffffffffffffffffffffffffffff1602179055506020820151816001015560408201518160020190816105009190612f66565b505050505050565b600073ffffffffffffffffffffffffffffffffffffffff168173ffffffffffffffffffffffffffffffffffffffff1603610577576040517f08c379a000000000000000000000000000000000000000000000000000000000815260040161056e90613084565b60405180910390fd5b600160003373ffffffffffffffffffffffffffffffffffffffff1673ffffffffffffffffffffffffffffffffffffffff16815260200190815260200160002060008273ffffffffffffffffffffffffffffffffffffffff1673ffffffffffffffffffffffffffffffffffffffff16815260200190815260200160002060009054906101000a900460ff1615610641576040517f08c379a0000000000000000000000000000000000000000000000000000000008152600401610638906130f0565b60405180910390fd5b600260003373ffffffffffffffffffffffffffffffffffffffff1673ffffffffffffffffffffffffffffffffffffffff16815260200190815260200160002060008273ffffffffffffffffffffffffffffffffffffffff1673ffffffffffffffffffffffffffffffffffffffff16815260200190815260200160002060009054906101000a900460ff1661070a576040517f08c379a00000000000000000000000000000000000000000000000000000000081526004016107019061315c565b60405180910390fd5b60018060003373ffffffffffffffffffffffffffffffffffffffff1673ffffffffffffffffffffffffffffffffffffffff16815260200190815260200160002060008373ffffffffffffffffffffffffffffffffffffffff1673ffffffffffffffffffffffffffffffffffffffff16815260200190815260200160002060006101000a81548160ff021916908315150217905550600360003373ffffffffffffffffffffffffffffffffffffffff1673ffffffffffffffffffffffffffffffffffffffff168152602001908152602001600020819080600181540180825580915050600190039060005260206000200160009091909190916101000a81548173ffffffffffffffffffffffffffffffffffffffff021916908373ffffffffffffffffffffffffffffffffffffffff16021790555060005b600460003373ffffffffffffffffffffffffffffffffffffffff1673ffffffffffffffffffffffffffffffffffffffff16815260200190815260200160002080549050811015610b32578173ffffffffffffffffffffffffffffffffffffffff16600460003373ffffffffffffffffffffffffffffffffffffffff1673ffffffffffffffffffffffffffffffffffffffff16815260200190815260200160002082815481106108f3576108f261317c565b5b9060005260206000200160009054906101000a900473ffffffffffffffffffffffffffffffffffffffff1673ffffffffffffffffffffffffffffffffffffffff1603610b2557600460003373ffffffffffffffffffffffffffffffffffffffff1673ffffffffffffffffffffffffffffffffffffffff1681526020019081526020016000206001600460003373ffffffffffffffffffffffffffffffffffffffff1673ffffffffffffffffffffffffffffffffffffffff168152602001908152602001600020805490506109c791906131da565b815481106109d8576109d761317c565b5b9060005260206000200160009054906101000a900473ffffffffffffffffffffffffffffffffffffffff16600460003373ffffffffffffffffffffffffffffffffffffffff1673ffffffffffffffffffffffffffffffffffffffff1681526020019081526020016000208281548110610a5457610a5361317c565b5b9060005260206000200160006101000a81548173ffffffffffffffffffffffffffffffffffffffff021916908373ffffffffffffffffffffffffffffffffffffffff160217905550600460003373ffffffffffffffffffffffffffffffffffffffff1673ffffffffffffffffffffffffffffffffffffffff168152602001908152602001600020805480610aeb57610aea61320e565b5b6001900381819060005260206000200160006101000a81549073ffffffffffffffffffffffffffffffffffffffff02191690559055610b32565b8080600101915050610841565b506000600260003373ffffffffffffffffffffffffffffffffffffffff1673ffffffffffffffffffffffffffffffffffffffff16815260200190815260200160002060008373ffffffffffffffffffffffffffffffffffffffff1673ffffffffffffffffffffffffffffffffffffffff16815260200190815260200160002060006101000a81548160ff0219169083151502179055508073ffffffffffffffffffffffffffffffffffffffff163373ffffffffffffffffffffffffffffffffffffffff167f4a6622bd49095654521c5384cbd9132dcf894fc61a9279e035e345f0b2759efb60405160405180910390a350565b600073ffffffffffffffffffffffffffffffffffffffff168273ffffffffffffffffffffffffffffffffffffffff1603610c94576040517f08c379a0000000000000000000000000000000000000000000000000000000008152600401610c8b90613289565b60405180910390fd5b3373ffffffffffffffffffffffffffffffffffffffff168273ffffffffffffffffffffffffffffffffffffffff1603610d02576040517f08c379a0000000000000000000000000000000000000000000000000000000008152600401610cf99061331b565b60405180910390fd5b600160008373ffffffffffffffffffffffffffffffffffffffff1673ffffffffffffffffffffffffffffffffffffffff16815260200190815260200160002060003373ffffffffffffffffffffffffffffffffffffffff1673ffffffffffffffffffffffffffffffffffffffff16815260200190815260200160002060009054906101000a900460ff1615610dcc576040517f08c379a0000000000000000000000000000000000000000000000000000000008152600401610dc3906130f0565b60405180910390fd5b60005b600460008473ffffffffffffffffffffffffffffffffffffffff1673ffffffffffffffffffffffffffffffffffffffff16815260200190815260200160002080549050811015610ef65760011515600260008573ffffffffffffffffffffffffffffffffffffffff1673ffffffffffffffffffffffffffffffffffffffff16815260200190815260200160002060003373ffffffffffffffffffffffffffffffffffffffff1673ffffffffffffffffffffffffffffffffffffffff16815260200190815260200160002060009054906101000a900460ff16151503610ee9576040517f08c379a0000000000000000000000000000000000000000000000000000000008152600401610ee090613387565b60405180910390fd5b8080600101915050610dcf565b50600460008373ffffffffffffffffffffffffffffffffffffffff1673ffffffffffffffffffffffffffffffffffffffff168152602001908152602001600020339080600181540180825580915050600190039060005260206000200160009091909190916101000a81548173ffffffffffffffffffffffffffffffffffffffff021916908373ffffffffffffffffffffffffffffffffffffffff1602179055506001600260008473ffffffffffffffffffffffffffffffffffffffff1673ffffffffffffffffffffffffffffffffffffffff16815260200190815260200160002060003373ffffffffffffffffffffffffffffffffffffffff1673ffffffffffffffffffffffffffffffffffffffff16815260200190815260200160002060006101000a81548160ff02191690831515021790555080600560008473ffffffffffffffffffffffffffffffffffffffff1673ffffffffffffffffffffffffffffffffffffffff16815260200190815260200160002060003373ffffffffffffffffffffffffffffffffffffffff1673ffffffffffffffffffffffffffffffffffffffff16815260200190815260200160002090816110b59190612f66565b508173ffffffffffffffffffffffffffffffffffffffff163373ffffffffffffffffffffffffffffffffffffffff167f7345df1fefb912154845267ca137457ad1fd510d6426afd2502e66d300602263836040516111139190612996565b60405180910390a35050565b600560205281600052604060002060205280600052604060002060009150915050805461114b90612d89565b80601f016020809104026020016040519081016040528092919081815260200182805461117790612d89565b80156111c45780601f10611199576101008083540402835291602001916111c4565b820191906000526020600020905b8154815290600101906020018083116111a757829003601f168201915b505050505081565b600073ffffffffffffffffffffffffffffffffffffffff168173ffffffffffffffffffffffffffffffffffffffff160361123b576040517f08c379a0000000000000000000000000000000000000000000000000000000008152600401611232906133f3565b60405180910390fd5b600260003373ffffffffffffffffffffffffffffffffffffffff1673ffffffffffffffffffffffffffffffffffffffff16815260200190815260200160002060008273ffffffffffffffffffffffffffffffffffffffff1673ffffffffffffffffffffffffffffffffffffffff16815260200190815260200160002060009054906101000a900460ff16611304576040517f08c379a00000000000000000000000000000000000000000000000000000000081526004016112fb9061315c565b60405180910390fd5b60005b600460003373ffffffffffffffffffffffffffffffffffffffff1673ffffffffffffffffffffffffffffffffffffffff168152602001908152602001600020805490508110156115f8578173ffffffffffffffffffffffffffffffffffffffff16600460003373ffffffffffffffffffffffffffffffffffffffff1673ffffffffffffffffffffffffffffffffffffffff16815260200190815260200160002082815481106113b9576113b861317c565b5b9060005260206000200160009054906101000a900473ffffffffffffffffffffffffffffffffffffffff1673ffffffffffffffffffffffffffffffffffffffff16036115eb57600460003373ffffffffffffffffffffffffffffffffffffffff1673ffffffffffffffffffffffffffffffffffffffff1681526020019081526020016000206001600460003373ffffffffffffffffffffffffffffffffffffffff1673ffffffffffffffffffffffffffffffffffffffff1681526020019081526020016000208054905061148d91906131da565b8154811061149e5761149d61317c565b5b9060005260206000200160009054906101000a900473ffffffffffffffffffffffffffffffffffffffff16600460003373ffffffffffffffffffffffffffffffffffffffff1673ffffffffffffffffffffffffffffffffffffffff168152602001908152602001600020828154811061151a5761151961317c565b5b9060005260206000200160006101000a81548173ffffffffffffffffffffffffffffffffffffffff021916908373ffffffffffffffffffffffffffffffffffffffff160217905550600460003373ffffffffffffffffffffffffffffffffffffffff1673ffffffffffffffffffffffffffffffffffffffff1681526020019081526020016000208054806115b1576115b061320e565b5b6001900381819060005260206000200160006101000a81549073ffffffffffffffffffffffffffffffffffffffff021916905590556115f8565b8080600101915050611307565b506000600260003373ffffffffffffffffffffffffffffffffffffffff1673ffffffffffffffffffffffffffffffffffffffff16815260200190815260200160002060008373ffffffffffffffffffffffffffffffffffffffff1673ffffffffffffffffffffffffffffffffffffffff16815260200190815260200160002060006101000a81548160ff0219169083151502179055508073ffffffffffffffffffffffffffffffffffffffff163373ffffffffffffffffffffffffffffffffffffffff167ffaa91a4293100db4c91cac682ba7d5cce292557de7ee5b2a6a1bb26d1a51a31460405160405180910390a350565b6060600460003373ffffffffffffffffffffffffffffffffffffffff1673ffffffffffffffffffffffffffffffffffffffff1681526020019081526020016000208054806020026020016040519081016040528092919081815260200182805480156117ac57602002820191906000526020600020905b8160009054906101000a900473ffffffffffffffffffffffffffffffffffffffff1673ffffffffffffffffffffffffffffffffffffffff1681526020019060010190808311611762575b5050505050905090565b600073ffffffffffffffffffffffffffffffffffffffff168173ffffffffffffffffffffffffffffffffffffffff1603611825576040517f08c379a000000000000000000000000000000000000000000000000000000000815260040161181c90613084565b60405180910390fd5b600160003373ffffffffffffffffffffffffffffffffffffffff1673ffffffffffffffffffffffffffffffffffffffff16815260200190815260200160002060008273ffffffffffffffffffffffffffffffffffffffff1673ffffffffffffffffffffffffffffffffffffffff16815260200190815260200160002060009054906101000a900460ff166118ee576040517f08c379a00000000000000000000000000000000000000000000000000000000081526004016118e59061345f565b60405180910390fd5b6000600160003373ffffffffffffffffffffffffffffffffffffffff1673ffffffffffffffffffffffffffffffffffffffff16815260200190815260200160002060008373ffffffffffffffffffffffffffffffffffffffff1673ffffffffffffffffffffffffffffffffffffffff16815260200190815260200160002060006101000a81548160ff02191690831515021790555060005b600360003373ffffffffffffffffffffffffffffffffffffffff1673ffffffffffffffffffffffffffffffffffffffff16815260200190815260200160002080549050811015611c77578173ffffffffffffffffffffffffffffffffffffffff16600360003373ffffffffffffffffffffffffffffffffffffffff1673ffffffffffffffffffffffffffffffffffffffff1681526020019081526020016000208281548110611a3857611a3761317c565b5b9060005260206000200160009054906101000a900473ffffffffffffffffffffffffffffffffffffffff1673ffffffffffffffffffffffffffffffffffffffff1603611c6a57600360003373ffffffffffffffffffffffffffffffffffffffff1673ffffffffffffffffffffffffffffffffffffffff1681526020019081526020016000206001600360003373ffffffffffffffffffffffffffffffffffffffff1673ffffffffffffffffffffffffffffffffffffffff16815260200190815260200160002080549050611b0c91906131da565b81548110611b1d57611b1c61317c565b5b9060005260206000200160009054906101000a900473ffffffffffffffffffffffffffffffffffffffff16600360003373ffffffffffffffffffffffffffffffffffffffff1673ffffffffffffffffffffffffffffffffffffffff1681526020019081526020016000208281548110611b9957611b9861317c565b5b9060005260206000200160006101000a81548173ffffffffffffffffffffffffffffffffffffffff021916908373ffffffffffffffffffffffffffffffffffffffff160217905550600360003373ffffffffffffffffffffffffffffffffffffffff1673ffffffffffffffffffffffffffffffffffffffff168152602001908152602001600020805480611c3057611c2f61320e565b5b6001900381819060005260206000200160006101000a81549073ffffffffffffffffffffffffffffffffffffffff02191690559055611c77565b8080600101915050611986565b508073ffffffffffffffffffffffffffffffffffffffff163373ffffffffffffffffffffffffffffffffffffffff167f825c8be24eb0df19500f63e86c29e7d0d951e73056b889b891d85e40938d9b6e60405160405180910390a350565b6060600360003373ffffffffffffffffffffffffffffffffffffffff1673ffffffffffffffffffffffffffffffffffffffff168152602001908152602001600020805480602002602001604051908101604052809291908181526020018280548015611d9657602002820191906000526020600020905b8160009054906101000a900473ffffffffffffffffffffffffffffffffffffffff1673ffffffffffffffffffffffffffffffffffffffff1681526020019060010190808311611d4c575b5050505050905090565b6000600160008373ffffffffffffffffffffffffffffffffffffffff1673ffffffffffffffffffffffffffffffffffffffff16815260200190815260200160002060003373ffffffffffffffffffffffffffffffffffffffff1673ffffffffffffffffffffffffffffffffffffffff16815260200190815260200160002060009054906101000a900460ff169050919050565b606080606060008060003373ffffffffffffffffffffffffffffffffffffffff1673ffffffffffffffffffffffffffffffffffffffff168152602001908152602001600020905060008160010180549050905060008167ffffffffffffffff811115611ea257611ea1612669565b5b604051908082528060200260200182016040528015611ed05781602001602082028036833780820191505090505b50905060008267ffffffffffffffff811115611eef57611eee612669565b5b604051908082528060200260200182016040528015611f1d5781602001602082028036833780820191505090505b50905060008367ffffffffffffffff811115611f3c57611f3b612669565b5b604051908082528060200260200182016040528015611f6f57816020015b6060815260200190600190039081611f5a5790505b50905060005b8481101561213457856001018181548110611f9357611f9261317c565b5b906000526020600020906003020160000160009054906101000a900473ffffffffffffffffffffffffffffffffffffffff16848281518110611fd857611fd761317c565b5b602002602001019073ffffffffffffffffffffffffffffffffffffffff16908173ffffffffffffffffffffffffffffffffffffffff16815250508560010181815481106120285761202761317c565b5b90600052602060002090600302016001015483828151811061204d5761204c61317c565b5b60200260200101818152505085600101818154811061206f5761206e61317c565b5b9060005260206000209060030201600201805461208b90612d89565b80601f01602080910402602001604051908101604052809291908181526020018280546120b790612d89565b80156121045780601f106120d957610100808354040283529160200191612104565b820191906000526020600020905b8154815290600101906020018083116120e757829003601f168201915b505050505082828151811061211c5761211b61317c565b5b60200260200101819052508080600101915050611f75565b508282829750975097505050505050909192565b8073ffffffffffffffffffffffffffffffffffffffff163373ffffffffffffffffffffffffffffffffffffffff1614806122085750600160008273ffffffffffffffffffffffffffffffffffffffff1673ffffffffffffffffffffffffffffffffffffffff16815260200190815260200160002060003373ffffffffffffffffffffffffffffffffffffffff1673ffffffffffffffffffffffffffffffffffffffff16815260200190815260200160002060009054906101000a900460ff165b612247576040517f08c379a000000000000000000000000000000000000000000000000000000000815260040161223e906134f1565b60405180910390fd5b60008060008373ffffffffffffffffffffffffffffffffffffffff1673ffffffffffffffffffffffffffffffffffffffff16815260200190815260200160002090508060010160405180606001604052803373ffffffffffffffffffffffffffffffffffffffff1681526020014281526020016040518060400160405280600e81526020017f5265636f72642075706461746564000000000000000000000000000000000000815250815250908060018154018082558091505060019003906000526020600020906003020160009091909190915060008201518160000160006101000a81548173ffffffffffffffffffffffffffffffffffffffff021916908373ffffffffffffffffffffffffffffffffffffffff1602179055506020820151816001015560408201518160020190816123829190612f66565b5050508173ffffffffffffffffffffffffffffffffffffffff167f496728c3966d39323f4b0f6f4a7a5e1f1cbbc87338b4a1d5942049e331ae28176040516123c99061355d565b60405180910390a25050565b6000600260008373ffffffffffffffffffffffffffffffffffffffff1673ffffffffffffffffffffffffffffffffffffffff16815260200190815260200160002060003373ffffffffffffffffffffffffffffffffffffffff1673ffffffffffffffffffffffffffffffffffffffff16815260200190815260200160002060009054906101000a900460ff169050919050565b60603373ffffffffffffffffffffffffffffffffffffffff168273ffffffffffffffffffffffffffffffffffffffff16148061252a5750600160008373ffffffffffffffffffffffffffffffffffffffff1673ffffffffffffffffffffffffffffffffffffffff16815260200190815260200160002060003373ffffffffffffffffffffffffffffffffffffffff1673ffffffffffffffffffffffffffffffffffffffff16815260200190815260200160002060009054906101000a900460ff165b612569576040517f08c379a0000000000000000000000000000000000000000000000000000000008152600401612560906135c9565b60405180910390fd5b6000808373ffffffffffffffffffffffffffffffffffffffff1673ffffffffffffffffffffffffffffffffffffffff16815260200190815260200160002060000180546125b590612d89565b80601f01602080910402602001604051908101604052809291908181526020018280546125e190612d89565b801561262e5780601f106126035761010080835404028352916020019161262e565b820191906000526020600020905b81548152906001019060200180831161261157829003601f168201915b50505050509050919050565b6000604051905090565b600080fd5b600080fd5b600080fd5b600080fd5b6000601f19601f8301169050919050565b7f4e487b7100000000000000000000000000000000000000000000000000000000600052604160045260246000fd5b6126a182612658565b810181811067ffffffffffffffff821117156126c0576126bf612669565b5b80604052505050565b60006126d361263a565b90506126df8282612698565b919050565b600067ffffffffffffffff8211156126ff576126fe612669565b5b61270882612658565b9050602081019050919050565b82818337600083830152505050565b6000612737612732846126e4565b6126c9565b90508281526020810184848401111561275357612752612653565b5b61275e848285612715565b509392505050565b600082601f83011261277b5761277a61264e565b5b813561278b848260208601612724565b91505092915050565b600073ffffffffffffffffffffffffffffffffffffffff82169050919050565b60006127bf82612794565b9050919050565b6127cf816127b4565b81146127da57600080fd5b50565b6000813590506127ec816127c6565b92915050565b6000806040838503121561280957612808612644565b5b600083013567ffffffffffffffff81111561282757612826612649565b5b61283385828601612766565b9250506020612844858286016127dd565b9150509250929050565b60006020828403121561286457612863612644565b5b6000612872848285016127dd565b91505092915050565b6000806040838503121561289257612891612644565b5b60006128a0858286016127dd565b925050602083013567ffffffffffffffff8111156128c1576128c0612649565b5b6128cd85828601612766565b9150509250929050565b600080604083850312156128ee576128ed612644565b5b60006128fc858286016127dd565b925050602061290d858286016127dd565b9150509250929050565b600081519050919050565b600082825260208201905092915050565b60005b83811015612951578082015181840152602081019050612936565b60008484015250505050565b600061296882612917565b6129728185612922565b9350612982818560208601612933565b61298b81612658565b840191505092915050565b600060208201905081810360008301526129b0818461295d565b905092915050565b600081519050919050565b600082825260208201905092915050565b6000819050602082019050919050565b6129ed816127b4565b82525050565b60006129ff83836129e4565b60208301905092915050565b6000602082019050919050565b6000612a23826129b8565b612a2d81856129c3565b9350612a38836129d4565b8060005b83811015612a69578151612a5088826129f3565b9750612a5b83612a0b565b925050600181019050612a3c565b5085935050505092915050565b60006020820190508181036000830152612a908184612a18565b905092915050565b60008115159050919050565b612aad81612a98565b82525050565b6000602082019050612ac86000830184612aa4565b92915050565b600081519050919050565b600082825260208201905092915050565b6000819050602082019050919050565b6000819050919050565b612b0d81612afa565b82525050565b6000612b1f8383612b04565b60208301905092915050565b6000602082019050919050565b6000612b4382612ace565b612b4d8185612ad9565b9350612b5883612aea565b8060005b83811015612b89578151612b708882612b13565b9750612b7b83612b2b565b925050600181019050612b5c565b5085935050505092915050565b600081519050919050565b600082825260208201905092915050565b6000819050602082019050919050565b600082825260208201905092915050565b6000612bde82612917565b612be88185612bc2565b9350612bf8818560208601612933565b612c0181612658565b840191505092915050565b6000612c188383612bd3565b905092915050565b6000602082019050919050565b6000612c3882612b96565b612c428185612ba1565b935083602082028501612c5485612bb2565b8060005b85811015612c905784840389528151612c718582612c0c565b9450612c7c83612c20565b925060208a01995050600181019050612c58565b50829750879550505050505092915050565b60006060820190508181036000830152612cbc8186612a18565b90508181036020830152612cd08185612b38565b90508181036040830152612ce48184612c2d565b9050949350505050565b7f5265636f7264206f776e657220616c7265616479207365740000000000000000600082015250565b6000612d24601883612922565b9150612d2f82612cee565b602082019050919050565b60006020820190508181036000830152612d5381612d17565b9050919050565b7f4e487b7100000000000000000000000000000000000000000000000000000000600052602260045260246000fd5b60006002820490506001821680612da157607f821691505b602082108103612db457612db3612d5a565b5b50919050565b60008190508160005260206000209050919050565b60006020601f8301049050919050565b600082821b905092915050565b600060088302612e1c7fffffffffffffffffffffffffffffffffffffffffffffffffffffffffffffffff82612ddf565b612e268683612ddf565b95508019841693508086168417925050509392505050565b6000819050919050565b6000612e63612e5e612e5984612afa565b612e3e565b612afa565b9050919050565b6000819050919050565b612e7d83612e48565b612e91612e8982612e6a565b848454612dec565b825550505050565b600090565b612ea6612e99565b612eb1818484612e74565b505050565b5b81811015612ed557612eca600082612e9e565b600181019050612eb7565b5050565b601f821115612f1a57612eeb81612dba565b612ef484612dcf565b81016020851015612f03578190505b612f17612f0f85612dcf565b830182612eb6565b50505b505050565b600082821c905092915050565b6000612f3d60001984600802612f1f565b1980831691505092915050565b6000612f568383612f2c565b9150826002028217905092915050565b612f6f82612917565b67ffffffffffffffff811115612f8857612f87612669565b5b612f928254612d89565b612f9d828285612ed9565b600060209050601f831160018114612fd05760008415612fbe578287015190505b612fc88582612f4a565b865550613030565b601f198416612fde86612dba565b60005b8281101561300657848901518255600182019150602085019450602081019050612fe1565b86831015613023578489015161301f601f891682612f2c565b8355505b6001600288020188555050505b505050505050565b7f496e76616c6964206772616e7465652061646472657373000000000000000000600082015250565b600061306e601783612922565b915061307982613038565b602082019050919050565b6000602082019050818103600083015261309d81613061565b9050919050565b7f41636365737320616c7265616479206772616e74656400000000000000000000600082015250565b60006130da601683612922565b91506130e5826130a4565b602082019050919050565b60006020820190508181036000830152613109816130cd565b9050919050565b7f4e6f20616363657373207265717565737420666f756e64000000000000000000600082015250565b6000613146601783612922565b915061315182613110565b602082019050919050565b6000602082019050818103600083015261317581613139565b9050919050565b7f4e487b7100000000000000000000000000000000000000000000000000000000600052603260045260246000fd5b7f4e487b7100000000000000000000000000000000000000000000000000000000600052601160045260246000fd5b60006131e582612afa565b91506131f083612afa565b9250828203905081811115613208576132076131ab565b5b92915050565b7f4e487b7100000000000000000000000000000000000000000000000000000000600052603160045260246000fd5b7f496e76616c6964207265636f7264206f776e6572000000000000000000000000600082015250565b6000613273601483612922565b915061327e8261323d565b602082019050919050565b600060208201905081810360008301526132a281613266565b9050919050565b7f43616e6e6f7420726571756573742061636365737320746f20796f7572206f7760008201527f6e207265636f7264000000000000000000000000000000000000000000000000602082015250565b6000613305602883612922565b9150613310826132a9565b604082019050919050565b60006020820190508181036000830152613334816132f8565b9050919050565b7f41636365737320616c7265616479207265717565737465640000000000000000600082015250565b6000613371601883612922565b915061337c8261333b565b602082019050919050565b600060208201905081810360008301526133a081613364565b9050919050565b7f496e76616c696420726571756573746572000000000000000000000000000000600082015250565b60006133dd601183612922565b91506133e8826133a7565b602082019050919050565b6000602082019050818103600083015261340c816133d0565b9050919050565b7f416363657373206e6f74206772616e7465640000000000000000000000000000600082015250565b6000613449601283612922565b915061345482613413565b602082019050919050565b600060208201905081810360008301526134788161343c565b9050919050565b7f4e6f7420617574686f72697a656420746f20757064617465207468697320726560008201527f636f726400000000000000000000000000000000000000000000000000000000602082015250565b60006134db602483612922565b91506134e68261347f565b604082019050919050565b6000602082019050818103600083015261350a816134ce565b9050919050565b7f2000000000000000000000000000000000000000000000000000000000000000600082015250565b6000613547600183612922565b915061355282613511565b602082019050919050565b600060208201905081810360008301526135768161353a565b9050919050565b7f4163636573732064656e69656400000000000000000000000000000000000000600082015250565b60006135b3600d83612922565b91506135be8261357d565b602082019050919050565b600060208201905081810360008301526135e2816135a6565b905091905056fea264697066735822122079820222027f17a796d2e033cd48a8e9b9752ee0ab2f8ee50f39051ad084c34164736f6c634300081c0033",
  "linkReferences": {},
  "deployedLinkReferences": {}
}