{
  "_format": "hh-sol-artifact-1",
  "contractName": "HealthInfo",
  "sourceName": "contracts/HealthInfo.sol",
  "abi": [
    {
      "anonymous": false,
      "inputs": [
        {
          "indexed": true,
          "internalType": "address",
          "name": "owner",
          "type": "address"
        },
        {
          "indexed": true,
          "internalType": "address",
          "name": "requester",
          "type": "address"
        }
      ],
      "name": "AccessRequestAccepted",
      "type": "event"
    },
    {
      "anonymous": false,
      "inputs": [
        {
          "indexed": true,
          "internalType": "address",
          "name": "owner",
          "type": "address"
        },
        {
          "indexed": true,
          "internalType": "address",
          "name": "requester",
          "type": "address"
        }
      ],
      "name": "AccessRequestRejected",
      "type": "event"
    },
    {
      "anonymous": false,
      "inputs": [
        {
          "indexed": true,
          "internalType": "address",
          "name": "owner",
          "type": "address"
        },
        {
          "indexed": true,
          "internalType": "address",
          "name": "requester",
          "type": "address"
        }
      ],
      "name": "AccessRequested",
      "type": "event"
    },
    {
      "anonymous": false,
      "inputs": [
        {
          "indexed": true,
          "internalType": "address",
          "name": "owner",
          "type": "address"
        },
        {
          "indexed": true,
          "internalType": "address",
          "name": "permissionedUser",
          "type": "address"
        }
      ],
      "name": "AccessRevoked",
      "type": "event"
    },
    {
      "anonymous": false,
      "inputs": [
        {
          "indexed": true,
          "internalType": "address",
          "name": "owner",
          "type": "address"
        },
        {
          "indexed": false,
          "internalType": "string",
          "name": "ipfsHash",
          "type": "string"
        }
      ],
      "name": "HealthRecordUpdated",
      "type": "event"
    },
    {
      "inputs": [
        {
          "internalType": "address",
          "name": "requester",
          "type": "address"
        }
      ],
      "name": "denyAccessRequest",
      "outputs": [],
      "stateMutability": "nonpayable",
      "type": "function"
    },
    {
      "inputs": [],
      "name": "getAccessList",
      "outputs": [
        {
          "internalType": "address[]",
          "name": "",
          "type": "address[]"
        }
      ],
      "stateMutability": "view",
      "type": "function"
    },
    {
      "inputs": [],
      "name": "getAccessRequests",
      "outputs": [
        {
          "internalType": "address[]",
          "name": "",
          "type": "address[]"
        }
      ],
      "stateMutability": "view",
      "type": "function"
    },
    {
      "inputs": [
        {
          "internalType": "address",
          "name": "recordOwner",
          "type": "address"
        }
      ],
      "name": "getHealthRecord",
      "outputs": [
        {
          "internalType": "string",
          "name": "",
          "type": "string"
        }
      ],
      "stateMutability": "view",
      "type": "function"
    },
    {
      "inputs": [],
      "name": "getUpdates",
      "outputs": [
        {
          "internalType": "address[]",
          "name": "",
          "type": "address[]"
        },
        {
          "internalType": "uint256[]",
          "name": "",
          "type": "uint256[]"
        },
        {
          "internalType": "string[]",
          "name": "",
          "type": "string[]"
        }
      ],
      "stateMutability": "view",
      "type": "function"
    },
    {
      "inputs": [
        {
          "internalType": "address",
          "name": "requester",
          "type": "address"
        }
      ],
      "name": "grantAccess",
      "outputs": [],
      "stateMutability": "nonpayable",
      "type": "function"
    },
    {
      "inputs": [
        {
          "internalType": "address",
          "name": "recordOwner",
          "type": "address"
        }
      ],
      "name": "requestAccess",
      "outputs": [],
      "stateMutability": "nonpayable",
      "type": "function"
    },
    {
      "inputs": [
        {
          "internalType": "address",
          "name": "permissionedUser",
          "type": "address"
        }
      ],
      "name": "revokeAccess",
      "outputs": [],
      "stateMutability": "nonpayable",
      "type": "function"
    },
    {
      "inputs": [
        {
          "internalType": "string",
          "name": "_ipfsHash",
          "type": "string"
        },
        {
          "internalType": "address",
          "name": "owner",
          "type": "address"
        }
      ],
      "name": "setOwner",
      "outputs": [],
      "stateMutability": "nonpayable",
      "type": "function"
    },
    {
      "inputs": [
        {
          "internalType": "address",
          "name": "owner",
          "type": "address"
        }
      ],
      "name": "updateHealthRecord",
      "outputs": [],
      "stateMutability": "nonpayable",
      "type": "function"
    }
  ],
  "bytecode": "0x6080604052348015600f57600080fd5b50612f428061001f6000396000f3fe608060405234801561001057600080fd5b506004361061009e5760003560e01c806385e685311161006657806385e68531146101315780638d5ddbb31461014d578063a8a1d2731461016b578063ad3f65d31461018b578063bd8f1752146101a75761009e565b8063022cb271146100a3578063092b25e9146100bf5780630ae5e739146100db5780634ad881ea146100f757806355b63a9414610113575b600080fd5b6100bd60048036038101906100b891906120a1565b6101d7565b005b6100d960048036038101906100d49190612214565b6104f5565b005b6100f560048036038101906100f091906120a1565b6106d1565b005b610111600480360381019061010c91906120a1565b610cd9565b005b61011b6110e3565b604051610128919061232e565b60405180910390f35b61014b600480360381019061014691906120a1565b6111ae565b005b6101556116cd565b604051610162919061232e565b60405180910390f35b610173611798565b60405161018293929190612559565b60405180910390f35b6101a560048036038101906101a091906120a1565b611aad565b005b6101c160048036038101906101bc91906120a1565b611d3a565b6040516101ce91906125ef565b60405180910390f35b600073ffffffffffffffffffffffffffffffffffffffff168173ffffffffffffffffffffffffffffffffffffffff1603610246576040517f08c379a000000000000000000000000000000000000000000000000000000000815260040161023d9061265d565b60405180910390fd5b3373ffffffffffffffffffffffffffffffffffffffff168173ffffffffffffffffffffffffffffffffffffffff16036102b4576040517f08c379a00000000000000000000000000000000000000000000000000000000081526004016102ab906126ef565b60405180910390fd5b60005b600360008373ffffffffffffffffffffffffffffffffffffffff1673ffffffffffffffffffffffffffffffffffffffff168152602001908152602001600020805490508110156103f7573373ffffffffffffffffffffffffffffffffffffffff16600360008473ffffffffffffffffffffffffffffffffffffffff1673ffffffffffffffffffffffffffffffffffffffff16815260200190815260200160002082815481106103695761036861270f565b5b9060005260206000200160009054906101000a900473ffffffffffffffffffffffffffffffffffffffff1673ffffffffffffffffffffffffffffffffffffffff16036103ea576040517f08c379a00000000000000000000000000000000000000000000000000000000081526004016103e19061278a565b60405180910390fd5b80806001019150506102b7565b50600360008273ffffffffffffffffffffffffffffffffffffffff1673ffffffffffffffffffffffffffffffffffffffff168152602001908152602001600020339080600181540180825580915050600190039060005260206000200160009091909190916101000a81548173ffffffffffffffffffffffffffffffffffffffff021916908373ffffffffffffffffffffffffffffffffffffffff1602179055508073ffffffffffffffffffffffffffffffffffffffff163373ffffffffffffffffffffffffffffffffffffffff167f40c7749b16fdfb0d550f20273a7767875059d647af94f5a9610c63ad73dcc79f60405160405180910390a350565b60008060008373ffffffffffffffffffffffffffffffffffffffff1673ffffffffffffffffffffffffffffffffffffffff168152602001908152602001600020600101805490501461057c576040517f08c379a0000000000000000000000000000000000000000000000000000000008152600401610573906127f6565b60405180910390fd5b60008060008373ffffffffffffffffffffffffffffffffffffffff1673ffffffffffffffffffffffffffffffffffffffff1681526020019081526020016000209050828160000190816105cf9190612a22565b508060010160405180606001604052803373ffffffffffffffffffffffffffffffffffffffff1681526020014281526020016040518060400160405280601781526020017f496e697469616c207265636f7264206372656174696f6e000000000000000000815250815250908060018154018082558091505060019003906000526020600020906003020160009091909190915060008201518160000160006101000a81548173ffffffffffffffffffffffffffffffffffffffff021916908373ffffffffffffffffffffffffffffffffffffffff1602179055506020820151816001015560408201518160020190816106c99190612a22565b505050505050565b600073ffffffffffffffffffffffffffffffffffffffff168173ffffffffffffffffffffffffffffffffffffffff1603610740576040517f08c379a000000000000000000000000000000000000000000000000000000000815260040161073790612b40565b60405180910390fd5b600160003373ffffffffffffffffffffffffffffffffffffffff1673ffffffffffffffffffffffffffffffffffffffff16815260200190815260200160002060008273ffffffffffffffffffffffffffffffffffffffff1673ffffffffffffffffffffffffffffffffffffffff16815260200190815260200160002060009054906101000a900460ff161561080a576040517f08c379a000000000000000000000000000000000000000000000000000000000815260040161080190612bac565b60405180910390fd5b6108143382611f0c565b610853576040517f08c379a000000000000000000000000000000000000000000000000000000000815260040161084a90612c18565b60405180910390fd5b60018060003373ffffffffffffffffffffffffffffffffffffffff1673ffffffffffffffffffffffffffffffffffffffff16815260200190815260200160002060008373ffffffffffffffffffffffffffffffffffffffff1673ffffffffffffffffffffffffffffffffffffffff16815260200190815260200160002060006101000a81548160ff021916908315150217905550600260003373ffffffffffffffffffffffffffffffffffffffff1673ffffffffffffffffffffffffffffffffffffffff168152602001908152602001600020819080600181540180825580915050600190039060005260206000200160009091909190916101000a81548173ffffffffffffffffffffffffffffffffffffffff021916908373ffffffffffffffffffffffffffffffffffffffff16021790555060005b600360003373ffffffffffffffffffffffffffffffffffffffff1673ffffffffffffffffffffffffffffffffffffffff16815260200190815260200160002080549050811015610c7b578173ffffffffffffffffffffffffffffffffffffffff16600360003373ffffffffffffffffffffffffffffffffffffffff1673ffffffffffffffffffffffffffffffffffffffff1681526020019081526020016000208281548110610a3c57610a3b61270f565b5b9060005260206000200160009054906101000a900473ffffffffffffffffffffffffffffffffffffffff1673ffffffffffffffffffffffffffffffffffffffff1603610c6e57600360003373ffffffffffffffffffffffffffffffffffffffff1673ffffffffffffffffffffffffffffffffffffffff1681526020019081526020016000206001600360003373ffffffffffffffffffffffffffffffffffffffff1673ffffffffffffffffffffffffffffffffffffffff16815260200190815260200160002080549050610b109190612c67565b81548110610b2157610b2061270f565b5b9060005260206000200160009054906101000a900473ffffffffffffffffffffffffffffffffffffffff16600360003373ffffffffffffffffffffffffffffffffffffffff1673ffffffffffffffffffffffffffffffffffffffff1681526020019081526020016000208281548110610b9d57610b9c61270f565b5b9060005260206000200160006101000a81548173ffffffffffffffffffffffffffffffffffffffff021916908373ffffffffffffffffffffffffffffffffffffffff160217905550600360003373ffffffffffffffffffffffffffffffffffffffff1673ffffffffffffffffffffffffffffffffffffffff168152602001908152602001600020805480610c3457610c33612c9b565b5b6001900381819060005260206000200160006101000a81549073ffffffffffffffffffffffffffffffffffffffff02191690559055610c7b565b808060010191505061098a565b508073ffffffffffffffffffffffffffffffffffffffff163373ffffffffffffffffffffffffffffffffffffffff167f4a6622bd49095654521c5384cbd9132dcf894fc61a9279e035e345f0b2759efb60405160405180910390a350565b600073ffffffffffffffffffffffffffffffffffffffff168173ffffffffffffffffffffffffffffffffffffffff1603610d48576040517f08c379a0000000000000000000000000000000000000000000000000000000008152600401610d3f90612d16565b60405180910390fd5b610d523382611f0c565b610d91576040517f08c379a0000000000000000000000000000000000000000000000000000000008152600401610d8890612c18565b60405180910390fd5b60005b600360003373ffffffffffffffffffffffffffffffffffffffff1673ffffffffffffffffffffffffffffffffffffffff16815260200190815260200160002080549050811015611085578173ffffffffffffffffffffffffffffffffffffffff16600360003373ffffffffffffffffffffffffffffffffffffffff1673ffffffffffffffffffffffffffffffffffffffff1681526020019081526020016000208281548110610e4657610e4561270f565b5b9060005260206000200160009054906101000a900473ffffffffffffffffffffffffffffffffffffffff1673ffffffffffffffffffffffffffffffffffffffff160361107857600360003373ffffffffffffffffffffffffffffffffffffffff1673ffffffffffffffffffffffffffffffffffffffff1681526020019081526020016000206001600360003373ffffffffffffffffffffffffffffffffffffffff1673ffffffffffffffffffffffffffffffffffffffff16815260200190815260200160002080549050610f1a9190612c67565b81548110610f2b57610f2a61270f565b5b9060005260206000200160009054906101000a900473ffffffffffffffffffffffffffffffffffffffff16600360003373ffffffffffffffffffffffffffffffffffffffff1673ffffffffffffffffffffffffffffffffffffffff1681526020019081526020016000208281548110610fa757610fa661270f565b5b9060005260206000200160006101000a81548173ffffffffffffffffffffffffffffffffffffffff021916908373ffffffffffffffffffffffffffffffffffffffff160217905550600360003373ffffffffffffffffffffffffffffffffffffffff1673ffffffffffffffffffffffffffffffffffffffff16815260200190815260200160002080548061103e5761103d612c9b565b5b6001900381819060005260206000200160006101000a81549073ffffffffffffffffffffffffffffffffffffffff02191690559055611085565b8080600101915050610d94565b508073ffffffffffffffffffffffffffffffffffffffff163373ffffffffffffffffffffffffffffffffffffffff167ffaa91a4293100db4c91cac682ba7d5cce292557de7ee5b2a6a1bb26d1a51a31460405160405180910390a350565b6060600360003373ffffffffffffffffffffffffffffffffffffffff1673ffffffffffffffffffffffffffffffffffffffff1681526020019081526020016000208054806020026020016040519081016040528092919081815260200182805480156111a457602002820191906000526020600020905b8160009054906101000a900473ffffffffffffffffffffffffffffffffffffffff1673ffffffffffffffffffffffffffffffffffffffff168152602001906001019080831161115a575b5050505050905090565b600073ffffffffffffffffffffffffffffffffffffffff168173ffffffffffffffffffffffffffffffffffffffff160361121d576040517f08c379a000000000000000000000000000000000000000000000000000000000815260040161121490612b40565b60405180910390fd5b600160003373ffffffffffffffffffffffffffffffffffffffff1673ffffffffffffffffffffffffffffffffffffffff16815260200190815260200160002060008273ffffffffffffffffffffffffffffffffffffffff1673ffffffffffffffffffffffffffffffffffffffff16815260200190815260200160002060009054906101000a900460ff166112e6576040517f08c379a00000000000000000000000000000000000000000000000000000000081526004016112dd90612d82565b60405180910390fd5b6000600160003373ffffffffffffffffffffffffffffffffffffffff1673ffffffffffffffffffffffffffffffffffffffff16815260200190815260200160002060008373ffffffffffffffffffffffffffffffffffffffff1673ffffffffffffffffffffffffffffffffffffffff16815260200190815260200160002060006101000a81548160ff02191690831515021790555060005b600260003373ffffffffffffffffffffffffffffffffffffffff1673ffffffffffffffffffffffffffffffffffffffff1681526020019081526020016000208054905081101561166f578173ffffffffffffffffffffffffffffffffffffffff16600260003373ffffffffffffffffffffffffffffffffffffffff1673ffffffffffffffffffffffffffffffffffffffff16815260200190815260200160002082815481106114305761142f61270f565b5b9060005260206000200160009054906101000a900473ffffffffffffffffffffffffffffffffffffffff1673ffffffffffffffffffffffffffffffffffffffff160361166257600260003373ffffffffffffffffffffffffffffffffffffffff1673ffffffffffffffffffffffffffffffffffffffff1681526020019081526020016000206001600260003373ffffffffffffffffffffffffffffffffffffffff1673ffffffffffffffffffffffffffffffffffffffff168152602001908152602001600020805490506115049190612c67565b815481106115155761151461270f565b5b9060005260206000200160009054906101000a900473ffffffffffffffffffffffffffffffffffffffff16600260003373ffffffffffffffffffffffffffffffffffffffff1673ffffffffffffffffffffffffffffffffffffffff16815260200190815260200160002082815481106115915761159061270f565b5b9060005260206000200160006101000a81548173ffffffffffffffffffffffffffffffffffffffff021916908373ffffffffffffffffffffffffffffffffffffffff160217905550600260003373ffffffffffffffffffffffffffffffffffffffff1673ffffffffffffffffffffffffffffffffffffffff16815260200190815260200160002080548061162857611627612c9b565b5b6001900381819060005260206000200160006101000a81549073ffffffffffffffffffffffffffffffffffffffff0219169055905561166f565b808060010191505061137e565b508073ffffffffffffffffffffffffffffffffffffffff163373ffffffffffffffffffffffffffffffffffffffff167f825c8be24eb0df19500f63e86c29e7d0d951e73056b889b891d85e40938d9b6e60405160405180910390a350565b6060600260003373ffffffffffffffffffffffffffffffffffffffff1673ffffffffffffffffffffffffffffffffffffffff16815260200190815260200160002080548060200260200160405190810160405280929190818152602001828054801561178e57602002820191906000526020600020905b8160009054906101000a900473ffffffffffffffffffffffffffffffffffffffff1673ffffffffffffffffffffffffffffffffffffffff1681526020019060010190808311611744575b5050505050905090565b606080606060008060003373ffffffffffffffffffffffffffffffffffffffff1673ffffffffffffffffffffffffffffffffffffffff168152602001908152602001600020905060008160010180549050905060008167ffffffffffffffff811115611807576118066120e9565b5b6040519080825280602002602001820160405280156118355781602001602082028036833780820191505090505b50905060008267ffffffffffffffff811115611854576118536120e9565b5b6040519080825280602002602001820160405280156118825781602001602082028036833780820191505090505b50905060008367ffffffffffffffff8111156118a1576118a06120e9565b5b6040519080825280602002602001820160405280156118d457816020015b60608152602001906001900390816118bf5790505b50905060005b84811015611a99578560010181815481106118f8576118f761270f565b5b906000526020600020906003020160000160009054906101000a900473ffffffffffffffffffffffffffffffffffffffff1684828151811061193d5761193c61270f565b5b602002602001019073ffffffffffffffffffffffffffffffffffffffff16908173ffffffffffffffffffffffffffffffffffffffff168152505085600101818154811061198d5761198c61270f565b5b9060005260206000209060030201600101548382815181106119b2576119b161270f565b5b6020026020010181815250508560010181815481106119d4576119d361270f565b5b906000526020600020906003020160020180546119f090612845565b80601f0160208091040260200160405190810160405280929190818152602001828054611a1c90612845565b8015611a695780601f10611a3e57610100808354040283529160200191611a69565b820191906000526020600020905b815481529060010190602001808311611a4c57829003601f168201915b5050505050828281518110611a8157611a8061270f565b5b602002602001018190525080806001019150506118da565b508282829750975097505050505050909192565b8073ffffffffffffffffffffffffffffffffffffffff163373ffffffffffffffffffffffffffffffffffffffff161480611b6d5750600160008273ffffffffffffffffffffffffffffffffffffffff1673ffffffffffffffffffffffffffffffffffffffff16815260200190815260200160002060003373ffffffffffffffffffffffffffffffffffffffff1673ffffffffffffffffffffffffffffffffffffffff16815260200190815260200160002060009054906101000a900460ff165b611bac576040517f08c379a0000000000000000000000000000000000000000000000000000000008152600401611ba390612e14565b60405180910390fd5b60008060008373ffffffffffffffffffffffffffffffffffffffff1673ffffffffffffffffffffffffffffffffffffffff16815260200190815260200160002090508060010160405180606001604052803373ffffffffffffffffffffffffffffffffffffffff1681526020014281526020016040518060400160405280600e81526020017f5265636f72642075706461746564000000000000000000000000000000000000815250815250908060018154018082558091505060019003906000526020600020906003020160009091909190915060008201518160000160006101000a81548173ffffffffffffffffffffffffffffffffffffffff021916908373ffffffffffffffffffffffffffffffffffffffff160217905550602082015181600101556040820151816002019081611ce79190612a22565b5050508173ffffffffffffffffffffffffffffffffffffffff167f496728c3966d39323f4b0f6f4a7a5e1f1cbbc87338b4a1d5942049e331ae2817604051611d2e90612e80565b60405180910390a25050565b60603373ffffffffffffffffffffffffffffffffffffffff168273ffffffffffffffffffffffffffffffffffffffff161480611dfc5750600160008373ffffffffffffffffffffffffffffffffffffffff1673ffffffffffffffffffffffffffffffffffffffff16815260200190815260200160002060003373ffffffffffffffffffffffffffffffffffffffff1673ffffffffffffffffffffffffffffffffffffffff16815260200190815260200160002060009054906101000a900460ff165b611e3b576040517f08c379a0000000000000000000000000000000000000000000000000000000008152600401611e3290612eec565b60405180910390fd5b6000808373ffffffffffffffffffffffffffffffffffffffff1673ffffffffffffffffffffffffffffffffffffffff1681526020019081526020016000206000018054611e8790612845565b80601f0160208091040260200160405190810160405280929190818152602001828054611eb390612845565b8015611f005780601f10611ed557610100808354040283529160200191611f00565b820191906000526020600020905b815481529060010190602001808311611ee357829003601f168201915b50505050509050919050565b600080600090505b600360008573ffffffffffffffffffffffffffffffffffffffff1673ffffffffffffffffffffffffffffffffffffffff16815260200190815260200160002080549050811015612023578273ffffffffffffffffffffffffffffffffffffffff16600360008673ffffffffffffffffffffffffffffffffffffffff1673ffffffffffffffffffffffffffffffffffffffff1681526020019081526020016000208281548110611fc657611fc561270f565b5b9060005260206000200160009054906101000a900473ffffffffffffffffffffffffffffffffffffffff1673ffffffffffffffffffffffffffffffffffffffff1603612016576001915050612029565b8080600101915050611f14565b50600090505b92915050565b6000604051905090565b600080fd5b600080fd5b600073ffffffffffffffffffffffffffffffffffffffff82169050919050565b600061206e82612043565b9050919050565b61207e81612063565b811461208957600080fd5b50565b60008135905061209b81612075565b92915050565b6000602082840312156120b7576120b6612039565b5b60006120c58482850161208c565b91505092915050565b600080fd5b600080fd5b6000601f19601f8301169050919050565b7f4e487b7100000000000000000000000000000000000000000000000000000000600052604160045260246000fd5b612121826120d8565b810181811067ffffffffffffffff821117156121405761213f6120e9565b5b80604052505050565b600061215361202f565b905061215f8282612118565b919050565b600067ffffffffffffffff82111561217f5761217e6120e9565b5b612188826120d8565b9050602081019050919050565b82818337600083830152505050565b60006121b76121b284612164565b612149565b9050828152602081018484840111156121d3576121d26120d3565b5b6121de848285612195565b509392505050565b600082601f8301126121fb576121fa6120ce565b5b813561220b8482602086016121a4565b91505092915050565b6000806040838503121561222b5761222a612039565b5b600083013567ffffffffffffffff8111156122495761224861203e565b5b612255858286016121e6565b92505060206122668582860161208c565b9150509250929050565b600081519050919050565b600082825260208201905092915050565b6000819050602082019050919050565b6122a581612063565b82525050565b60006122b7838361229c565b60208301905092915050565b6000602082019050919050565b60006122db82612270565b6122e5818561227b565b93506122f08361228c565b8060005b8381101561232157815161230888826122ab565b9750612313836122c3565b9250506001810190506122f4565b5085935050505092915050565b6000602082019050818103600083015261234881846122d0565b905092915050565b600081519050919050565b600082825260208201905092915050565b6000819050602082019050919050565b6000819050919050565b61238f8161237c565b82525050565b60006123a18383612386565b60208301905092915050565b6000602082019050919050565b60006123c582612350565b6123cf818561235b565b93506123da8361236c565b8060005b8381101561240b5781516123f28882612395565b97506123fd836123ad565b9250506001810190506123de565b5085935050505092915050565b600081519050919050565b600082825260208201905092915050565b6000819050602082019050919050565b600081519050919050565b600082825260208201905092915050565b60005b8381101561247e578082015181840152602081019050612463565b60008484015250505050565b600061249582612444565b61249f818561244f565b93506124af818560208601612460565b6124b8816120d8565b840191505092915050565b60006124cf838361248a565b905092915050565b6000602082019050919050565b60006124ef82612418565b6124f98185612423565b93508360208202850161250b85612434565b8060005b85811015612547578484038952815161252885826124c3565b9450612533836124d7565b925060208a0199505060018101905061250f565b50829750879550505050505092915050565b6000606082019050818103600083015261257381866122d0565b9050818103602083015261258781856123ba565b9050818103604083015261259b81846124e4565b9050949350505050565b600082825260208201905092915050565b60006125c182612444565b6125cb81856125a5565b93506125db818560208601612460565b6125e4816120d8565b840191505092915050565b6000602082019050818103600083015261260981846125b6565b905092915050565b7f496e76616c6964207265636f7264206f776e6572000000000000000000000000600082015250565b60006126476014836125a5565b915061265282612611565b602082019050919050565b600060208201905081810360008301526126768161263a565b9050919050565b7f43616e6e6f7420726571756573742061636365737320746f20796f7572206f7760008201527f6e207265636f7264000000000000000000000000000000000000000000000000602082015250565b60006126d96028836125a5565b91506126e48261267d565b604082019050919050565b60006020820190508181036000830152612708816126cc565b9050919050565b7f4e487b7100000000000000000000000000000000000000000000000000000000600052603260045260246000fd5b7f41636365737320616c7265616479207265717565737465640000000000000000600082015250565b60006127746018836125a5565b915061277f8261273e565b602082019050919050565b600060208201905081810360008301526127a381612767565b9050919050565b7f5265636f7264206f776e657220616c7265616479207365740000000000000000600082015250565b60006127e06018836125a5565b91506127eb826127aa565b602082019050919050565b6000602082019050818103600083015261280f816127d3565b9050919050565b7f4e487b7100000000000000000000000000000000000000000000000000000000600052602260045260246000fd5b6000600282049050600182168061285d57607f821691505b6020821081036128705761286f612816565b5b50919050565b60008190508160005260206000209050919050565b60006020601f8301049050919050565b600082821b905092915050565b6000600883026128d87fffffffffffffffffffffffffffffffffffffffffffffffffffffffffffffffff8261289b565b6128e2868361289b565b95508019841693508086168417925050509392505050565b6000819050919050565b600061291f61291a6129158461237c565b6128fa565b61237c565b9050919050565b6000819050919050565b61293983612904565b61294d61294582612926565b8484546128a8565b825550505050565b600090565b612962612955565b61296d818484612930565b505050565b5b818110156129915761298660008261295a565b600181019050612973565b5050565b601f8211156129d6576129a781612876565b6129b08461288b565b810160208510156129bf578190505b6129d36129cb8561288b565b830182612972565b50505b505050565b600082821c905092915050565b60006129f9600019846008026129db565b1980831691505092915050565b6000612a1283836129e8565b9150826002028217905092915050565b612a2b82612444565b67ffffffffffffffff811115612a4457612a436120e9565b5b612a4e8254612845565b612a59828285612995565b600060209050601f831160018114612a8c5760008415612a7a578287015190505b612a848582612a06565b865550612aec565b601f198416612a9a86612876565b60005b82811015612ac257848901518255600182019150602085019450602081019050612a9d565b86831015612adf5784890151612adb601f8916826129e8565b8355505b6001600288020188555050505b505050505050565b7f496e76616c6964206772616e7465652061646472657373000000000000000000600082015250565b6000612b2a6017836125a5565b9150612b3582612af4565b602082019050919050565b60006020820190508181036000830152612b5981612b1d565b9050919050565b7f41636365737320616c7265616479206772616e74656400000000000000000000600082015250565b6000612b966016836125a5565b9150612ba182612b60565b602082019050919050565b60006020820190508181036000830152612bc581612b89565b9050919050565b7f4e6f20616363657373207265717565737420666f756e64000000000000000000600082015250565b6000612c026017836125a5565b9150612c0d82612bcc565b602082019050919050565b60006020820190508181036000830152612c3181612bf5565b9050919050565b7f4e487b7100000000000000000000000000000000000000000000000000000000600052601160045260246000fd5b6000612c728261237c565b9150612c7d8361237c565b9250828203905081811115612c9557612c94612c38565b5b92915050565b7f4e487b7100000000000000000000000000000000000000000000000000000000600052603160045260246000fd5b7f496e76616c696420726571756573746572000000000000000000000000000000600082015250565b6000612d006011836125a5565b9150612d0b82612cca565b602082019050919050565b60006020820190508181036000830152612d2f81612cf3565b9050919050565b7f416363657373206e6f74206772616e7465640000000000000000000000000000600082015250565b6000612d6c6012836125a5565b9150612d7782612d36565b602082019050919050565b60006020820190508181036000830152612d9b81612d5f565b9050919050565b7f4e6f7420617574686f72697a656420746f20757064617465207468697320726560008201527f636f726400000000000000000000000000000000000000000000000000000000602082015250565b6000612dfe6024836125a5565b9150612e0982612da2565b604082019050919050565b60006020820190508181036000830152612e2d81612df1565b9050919050565b7f2000000000000000000000000000000000000000000000000000000000000000600082015250565b6000612e6a6001836125a5565b9150612e7582612e34565b602082019050919050565b60006020820190508181036000830152612e9981612e5d565b9050919050565b7f4163636573732064656e69656400000000000000000000000000000000000000600082015250565b6000612ed6600d836125a5565b9150612ee182612ea0565b602082019050919050565b60006020820190508181036000830152612f0581612ec9565b905091905056fea2646970667358221220ee3f6ea52fb6d4a71ab2dd55a94a8849aaf0ef150280786b36da32fda09fc71464736f6c634300081c0033",
  "linkReferences": {},
  "deployedLinkReferences": {}
}