{
    "_format": "hh-sol-artifact-1",
    "contractName": "HealthInfo",
    "sourceName": "contracts/HealthInfo.sol",
    "abi": [
        {
            "anonymous": false,
            "inputs": [
                {
                    "indexed": true,
                    "internalType": "address",
                    "name": "owner",
                    "type": "address"
                },
                {
                    "indexed": true,
                    "internalType": "address",
                    "name": "permissionedUser",
                    "type": "address"
                }
            ],
            "name": "AccessGranted",
            "type": "event"
        },
        {
            "anonymous": false,
            "inputs": [
                {
                    "indexed": true,
                    "internalType": "address",
                    "name": "owner",
                    "type": "address"
                },
                {
                    "indexed": true,
                    "internalType": "address",
                    "name": "permissionedUser",
                    "type": "address"
                }
            ],
            "name": "AccessRevoked",
            "type": "event"
        },
        {
            "anonymous": false,
            "inputs": [
                {
                    "indexed": true,
                    "internalType": "address",
                    "name": "owner",
                    "type": "address"
                },
                {
                    "indexed": false,
                    "internalType": "string",
                    "name": "ipfsHash",
                    "type": "string"
                }
            ],
            "name": "HealthRecordUpdated",
            "type": "event"
        },
        {
            "inputs": [
                {
                    "internalType": "string",
                    "name": "_ipfsHash",
                    "type": "string"
                }
            ],
            "name": "addOrUpdateHealthRecord",
            "outputs": [],
            "stateMutability": "nonpayable",
            "type": "function"
        },
        {
            "inputs": [
                {
                    "internalType": "address",
                    "name": "owner",
                    "type": "address"
                }
            ],
            "name": "getAccessList",
            "outputs": [
                {
                    "internalType": "address[]",
                    "name": "",
                    "type": "address[]"
                }
            ],
            "stateMutability": "view",
            "type": "function"
        },
        {
            "inputs": [
                {
                    "internalType": "address",
                    "name": "recordOwner",
                    "type": "address"
                }
            ],
            "name": "getHealthRecord",
            "outputs": [
                {
                    "internalType": "string",
                    "name": "",
                    "type": "string"
                }
            ],
            "stateMutability": "view",
            "type": "function"
        },
        {
            "inputs": [
                {
                    "internalType": "address",
                    "name": "recordOwner",
                    "type": "address"
                }
            ],
            "name": "getUpdates",
            "outputs": [
                {
                    "internalType": "address[]",
                    "name": "",
                    "type": "address[]"
                },
                {
                    "internalType": "uint256[]",
                    "name": "",
                    "type": "uint256[]"
                }
            ],
            "stateMutability": "view",
            "type": "function"
        },
        {
            "inputs": [
                {
                    "internalType": "address",
                    "name": "permissionedUser",
                    "type": "address"
                }
            ],
            "name": "grantAccess",
            "outputs": [],
            "stateMutability": "nonpayable",
            "type": "function"
        },
        {
            "inputs": [
                {
                    "internalType": "address",
                    "name": "permissionedUser",
                    "type": "address"
                }
            ],
            "name": "revokeAccess",
            "outputs": [],
            "stateMutability": "nonpayable",
            "type": "function"
        }
    ],
    "bytecode": "0x6080604052348015600f57600080fd5b50611be18061001f6000396000f3fe608060405234801561001057600080fd5b50600436106100625760003560e01c80630ae5e7391461006757806380efcb3c1461008357806385e68531146100b35780639b0d83f9146100cf578063bd8f175214610100578063d252276614610130575b600080fd5b610081600480360381019061007c9190611220565b61014c565b005b61009d60048036038101906100989190611220565b610416565b6040516100aa919061130b565b60405180910390f35b6100cd60048036038101906100c89190611220565b6105e2565b005b6100e960048036038101906100e49190611220565b610b01565b6040516100f79291906113f5565b60405180910390f35b61011a60048036038101906101159190611220565b610def565b60405161012791906114bc565b60405180910390f35b61014a60048036038101906101459190611613565b610fc1565b005b600073ffffffffffffffffffffffffffffffffffffffff168173ffffffffffffffffffffffffffffffffffffffff16036101bb576040517f08c379a00000000000000000000000000000000000000000000000000000000081526004016101b2906116a8565b60405180910390fd5b600160003373ffffffffffffffffffffffffffffffffffffffff1673ffffffffffffffffffffffffffffffffffffffff16815260200190815260200160002060008273ffffffffffffffffffffffffffffffffffffffff1673ffffffffffffffffffffffffffffffffffffffff16815260200190815260200160002060009054906101000a900460ff1615610285576040517f08c379a000000000000000000000000000000000000000000000000000000000815260040161027c90611714565b60405180910390fd5b60018060003373ffffffffffffffffffffffffffffffffffffffff1673ffffffffffffffffffffffffffffffffffffffff16815260200190815260200160002060008373ffffffffffffffffffffffffffffffffffffffff1673ffffffffffffffffffffffffffffffffffffffff16815260200190815260200160002060006101000a81548160ff021916908315150217905550600260003373ffffffffffffffffffffffffffffffffffffffff1673ffffffffffffffffffffffffffffffffffffffff168152602001908152602001600020819080600181540180825580915050600190039060005260206000200160009091909190916101000a81548173ffffffffffffffffffffffffffffffffffffffff021916908373ffffffffffffffffffffffffffffffffffffffff1602179055508073ffffffffffffffffffffffffffffffffffffffff163373ffffffffffffffffffffffffffffffffffffffff167f9f520b3bfc56d06f7065d10b4683b3f57ac8895d5026cd176dee95ce1454cb8d60405160405180910390a350565b60603373ffffffffffffffffffffffffffffffffffffffff168273ffffffffffffffffffffffffffffffffffffffff1614806104d85750600160008373ffffffffffffffffffffffffffffffffffffffff1673ffffffffffffffffffffffffffffffffffffffff16815260200190815260200160002060003373ffffffffffffffffffffffffffffffffffffffff1673ffffffffffffffffffffffffffffffffffffffff16815260200190815260200160002060009054906101000a900460ff165b610517576040517f08c379a000000000000000000000000000000000000000000000000000000000815260040161050e90611780565b60405180910390fd5b600260008373ffffffffffffffffffffffffffffffffffffffff1673ffffffffffffffffffffffffffffffffffffffff1681526020019081526020016000208054806020026020016040519081016040528092919081815260200182805480156105d657602002820191906000526020600020905b8160009054906101000a900473ffffffffffffffffffffffffffffffffffffffff1673ffffffffffffffffffffffffffffffffffffffff168152602001906001019080831161058c575b50505050509050919050565b600073ffffffffffffffffffffffffffffffffffffffff168173ffffffffffffffffffffffffffffffffffffffff1603610651576040517f08c379a0000000000000000000000000000000000000000000000000000000008152600401610648906116a8565b60405180910390fd5b600160003373ffffffffffffffffffffffffffffffffffffffff1673ffffffffffffffffffffffffffffffffffffffff16815260200190815260200160002060008273ffffffffffffffffffffffffffffffffffffffff1673ffffffffffffffffffffffffffffffffffffffff16815260200190815260200160002060009054906101000a900460ff1661071a576040517f08c379a0000000000000000000000000000000000000000000000000000000008152600401610711906117ec565b60405180910390fd5b6000600160003373ffffffffffffffffffffffffffffffffffffffff1673ffffffffffffffffffffffffffffffffffffffff16815260200190815260200160002060008373ffffffffffffffffffffffffffffffffffffffff1673ffffffffffffffffffffffffffffffffffffffff16815260200190815260200160002060006101000a81548160ff02191690831515021790555060005b600260003373ffffffffffffffffffffffffffffffffffffffff1673ffffffffffffffffffffffffffffffffffffffff16815260200190815260200160002080549050811015610aa3578173ffffffffffffffffffffffffffffffffffffffff16600260003373ffffffffffffffffffffffffffffffffffffffff1673ffffffffffffffffffffffffffffffffffffffff16815260200190815260200160002082815481106108645761086361180c565b5b9060005260206000200160009054906101000a900473ffffffffffffffffffffffffffffffffffffffff1673ffffffffffffffffffffffffffffffffffffffff1603610a9657600260003373ffffffffffffffffffffffffffffffffffffffff1673ffffffffffffffffffffffffffffffffffffffff1681526020019081526020016000206001600260003373ffffffffffffffffffffffffffffffffffffffff1673ffffffffffffffffffffffffffffffffffffffff16815260200190815260200160002080549050610938919061186a565b815481106109495761094861180c565b5b9060005260206000200160009054906101000a900473ffffffffffffffffffffffffffffffffffffffff16600260003373ffffffffffffffffffffffffffffffffffffffff1673ffffffffffffffffffffffffffffffffffffffff16815260200190815260200160002082815481106109c5576109c461180c565b5b9060005260206000200160006101000a81548173ffffffffffffffffffffffffffffffffffffffff021916908373ffffffffffffffffffffffffffffffffffffffff160217905550600260003373ffffffffffffffffffffffffffffffffffffffff1673ffffffffffffffffffffffffffffffffffffffff168152602001908152602001600020805480610a5c57610a5b61189e565b5b6001900381819060005260206000200160006101000a81549073ffffffffffffffffffffffffffffffffffffffff02191690559055610aa3565b80806001019150506107b2565b508073ffffffffffffffffffffffffffffffffffffffff163373ffffffffffffffffffffffffffffffffffffffff167f825c8be24eb0df19500f63e86c29e7d0d951e73056b889b891d85e40938d9b6e60405160405180910390a350565b60608060008060008573ffffffffffffffffffffffffffffffffffffffff1673ffffffffffffffffffffffffffffffffffffffff16815260200190815260200160002090503373ffffffffffffffffffffffffffffffffffffffff168473ffffffffffffffffffffffffffffffffffffffff161480610c065750600160008573ffffffffffffffffffffffffffffffffffffffff1673ffffffffffffffffffffffffffffffffffffffff16815260200190815260200160002060003373ffffffffffffffffffffffffffffffffffffffff1673ffffffffffffffffffffffffffffffffffffffff16815260200190815260200160002060009054906101000a900460ff165b610c45576040517f08c379a0000000000000000000000000000000000000000000000000000000008152600401610c3c90611780565b60405180910390fd5b60008160020180549050905060008167ffffffffffffffff811115610c6d57610c6c6114e8565b5b604051908082528060200260200182016040528015610c9b5781602001602082028036833780820191505090505b50905060008267ffffffffffffffff811115610cba57610cb96114e8565b5b604051908082528060200260200182016040528015610ce85781602001602082028036833780820191505090505b50905060005b83811015610ddf57846002018181548110610d0c57610d0b61180c565b5b906000526020600020906002020160000160009054906101000a900473ffffffffffffffffffffffffffffffffffffffff16838281518110610d5157610d5061180c565b5b602002602001019073ffffffffffffffffffffffffffffffffffffffff16908173ffffffffffffffffffffffffffffffffffffffff1681525050846002018181548110610da157610da061180c565b5b906000526020600020906002020160010154828281518110610dc657610dc561180c565b5b6020026020010181815250508080600101915050610cee565b5081819550955050505050915091565b60603373ffffffffffffffffffffffffffffffffffffffff168273ffffffffffffffffffffffffffffffffffffffff161480610eb15750600160008373ffffffffffffffffffffffffffffffffffffffff1673ffffffffffffffffffffffffffffffffffffffff16815260200190815260200160002060003373ffffffffffffffffffffffffffffffffffffffff1673ffffffffffffffffffffffffffffffffffffffff16815260200190815260200160002060009054906101000a900460ff165b610ef0576040517f08c379a0000000000000000000000000000000000000000000000000000000008152600401610ee790611780565b60405180910390fd5b6000808373ffffffffffffffffffffffffffffffffffffffff1673ffffffffffffffffffffffffffffffffffffffff1681526020019081526020016000206000018054610f3c906118fc565b80601f0160208091040260200160405190810160405280929190818152602001828054610f68906118fc565b8015610fb55780601f10610f8a57610100808354040283529160200191610fb5565b820191906000526020600020905b815481529060010190602001808311610f9857829003601f168201915b50505050509050919050565b60008060003373ffffffffffffffffffffffffffffffffffffffff1673ffffffffffffffffffffffffffffffffffffffff1681526020019081526020016000209050600073ffffffffffffffffffffffffffffffffffffffff168160010160009054906101000a900473ffffffffffffffffffffffffffffffffffffffff1673ffffffffffffffffffffffffffffffffffffffff160361109f57338160010160006101000a81548173ffffffffffffffffffffffffffffffffffffffff021916908373ffffffffffffffffffffffffffffffffffffffff1602179055505b818160000190816110b09190611ad9565b508060020160405180604001604052803373ffffffffffffffffffffffffffffffffffffffff16815260200142815250908060018154018082558091505060019003906000526020600020906002020160009091909190915060008201518160000160006101000a81548173ffffffffffffffffffffffffffffffffffffffff021916908373ffffffffffffffffffffffffffffffffffffffff1602179055506020820151816001015550503373ffffffffffffffffffffffffffffffffffffffff167f496728c3966d39323f4b0f6f4a7a5e1f1cbbc87338b4a1d5942049e331ae2817836040516111a291906114bc565b60405180910390a25050565b6000604051905090565b600080fd5b600080fd5b600073ffffffffffffffffffffffffffffffffffffffff82169050919050565b60006111ed826111c2565b9050919050565b6111fd816111e2565b811461120857600080fd5b50565b60008135905061121a816111f4565b92915050565b600060208284031215611236576112356111b8565b5b60006112448482850161120b565b91505092915050565b600081519050919050565b600082825260208201905092915050565b6000819050602082019050919050565b611282816111e2565b82525050565b60006112948383611279565b60208301905092915050565b6000602082019050919050565b60006112b88261124d565b6112c28185611258565b93506112cd83611269565b8060005b838110156112fe5781516112e58882611288565b97506112f0836112a0565b9250506001810190506112d1565b5085935050505092915050565b6000602082019050818103600083015261132581846112ad565b905092915050565b600081519050919050565b600082825260208201905092915050565b6000819050602082019050919050565b6000819050919050565b61136c81611359565b82525050565b600061137e8383611363565b60208301905092915050565b6000602082019050919050565b60006113a28261132d565b6113ac8185611338565b93506113b783611349565b8060005b838110156113e85781516113cf8882611372565b97506113da8361138a565b9250506001810190506113bb565b5085935050505092915050565b6000604082019050818103600083015261140f81856112ad565b905081810360208301526114238184611397565b90509392505050565b600081519050919050565b600082825260208201905092915050565b60005b8381101561146657808201518184015260208101905061144b565b60008484015250505050565b6000601f19601f8301169050919050565b600061148e8261142c565b6114988185611437565b93506114a8818560208601611448565b6114b181611472565b840191505092915050565b600060208201905081810360008301526114d68184611483565b905092915050565b600080fd5b600080fd5b7f4e487b7100000000000000000000000000000000000000000000000000000000600052604160045260246000fd5b61152082611472565b810181811067ffffffffffffffff8211171561153f5761153e6114e8565b5b80604052505050565b60006115526111ae565b905061155e8282611517565b919050565b600067ffffffffffffffff82111561157e5761157d6114e8565b5b61158782611472565b9050602081019050919050565b82818337600083830152505050565b60006115b66115b184611563565b611548565b9050828152602081018484840111156115d2576115d16114e3565b5b6115dd848285611594565b509392505050565b600082601f8301126115fa576115f96114de565b5b813561160a8482602086016115a3565b91505092915050565b600060208284031215611629576116286111b8565b5b600082013567ffffffffffffffff811115611647576116466111bd565b5b611653848285016115e5565b91505092915050565b7f496e76616c6964206772616e7465652061646472657373000000000000000000600082015250565b6000611692601783611437565b915061169d8261165c565b602082019050919050565b600060208201905081810360008301526116c181611685565b9050919050565b7f41636365737320616c7265616479206772616e74656400000000000000000000600082015250565b60006116fe601683611437565b9150611709826116c8565b602082019050919050565b6000602082019050818103600083015261172d816116f1565b9050919050565b7f4163636573732064656e69656400000000000000000000000000000000000000600082015250565b600061176a600d83611437565b915061177582611734565b602082019050919050565b600060208201905081810360008301526117998161175d565b9050919050565b7f416363657373206e6f74206772616e7465640000000000000000000000000000600082015250565b60006117d6601283611437565b91506117e1826117a0565b602082019050919050565b60006020820190508181036000830152611805816117c9565b9050919050565b7f4e487b7100000000000000000000000000000000000000000000000000000000600052603260045260246000fd5b7f4e487b7100000000000000000000000000000000000000000000000000000000600052601160045260246000fd5b600061187582611359565b915061188083611359565b92508282039050818111156118985761189761183b565b5b92915050565b7f4e487b7100000000000000000000000000000000000000000000000000000000600052603160045260246000fd5b7f4e487b7100000000000000000000000000000000000000000000000000000000600052602260045260246000fd5b6000600282049050600182168061191457607f821691505b602082108103611927576119266118cd565b5b50919050565b60008190508160005260206000209050919050565b60006020601f8301049050919050565b600082821b905092915050565b60006008830261198f7fffffffffffffffffffffffffffffffffffffffffffffffffffffffffffffffff82611952565b6119998683611952565b95508019841693508086168417925050509392505050565b6000819050919050565b60006119d66119d16119cc84611359565b6119b1565b611359565b9050919050565b6000819050919050565b6119f0836119bb565b611a046119fc826119dd565b84845461195f565b825550505050565b600090565b611a19611a0c565b611a248184846119e7565b505050565b5b81811015611a4857611a3d600082611a11565b600181019050611a2a565b5050565b601f821115611a8d57611a5e8161192d565b611a6784611942565b81016020851015611a76578190505b611a8a611a8285611942565b830182611a29565b50505b505050565b600082821c905092915050565b6000611ab060001984600802611a92565b1980831691505092915050565b6000611ac98383611a9f565b9150826002028217905092915050565b611ae28261142c565b67ffffffffffffffff811115611afb57611afa6114e8565b5b611b0582546118fc565b611b10828285611a4c565b600060209050601f831160018114611b435760008415611b31578287015190505b611b3b8582611abd565b865550611ba3565b601f198416611b518661192d565b60005b82811015611b7957848901518255600182019150602085019450602081019050611b54565b86831015611b965784890151611b92601f891682611a9f565b8355505b6001600288020188555050505b50505050505056fea26469706673582212203018985ead0fd3a8c1172cc96cdfa8795a1bcf053f1840ab9e2841c7f5b5011764736f6c634300081c0033",
    "linkReferences": {},
    "deployedLinkReferences": {}
}