{
  "_format": "hh-sol-artifact-1",
  "contractName": "HealthInfo",
  "sourceName": "contracts/HealthInfo.sol",
  "abi": [
    {
      "anonymous": false,
      "inputs": [
        {
          "indexed": true,
          "internalType": "address",
          "name": "owner",
          "type": "address"
        },
        {
          "indexed": true,
          "internalType": "address",
          "name": "requester",
          "type": "address"
        }
      ],
      "name": "AccessRequestAccepted",
      "type": "event"
    },
    {
      "anonymous": false,
      "inputs": [
        {
          "indexed": true,
          "internalType": "address",
          "name": "owner",
          "type": "address"
        },
        {
          "indexed": true,
          "internalType": "address",
          "name": "requester",
          "type": "address"
        }
      ],
      "name": "AccessRequestRejected",
      "type": "event"
    },
    {
      "anonymous": false,
      "inputs": [
        {
          "indexed": true,
          "internalType": "address",
          "name": "owner",
          "type": "address"
        },
        {
          "indexed": true,
          "internalType": "address",
          "name": "requester",
          "type": "address"
        }
      ],
      "name": "AccessRequested",
      "type": "event"
    },
    {
      "anonymous": false,
      "inputs": [
        {
          "indexed": true,
          "internalType": "address",
          "name": "owner",
          "type": "address"
        },
        {
          "indexed": true,
          "internalType": "address",
          "name": "permissionedUser",
          "type": "address"
        }
      ],
      "name": "AccessRevoked",
      "type": "event"
    },
    {
      "anonymous": false,
      "inputs": [
        {
          "indexed": true,
          "internalType": "address",
          "name": "owner",
          "type": "address"
        },
        {
          "indexed": false,
          "internalType": "string",
          "name": "ipfsHash",
          "type": "string"
        }
      ],
      "name": "HealthRecordUpdated",
      "type": "event"
    },
    {
      "inputs": [
        {
          "internalType": "address",
          "name": "requester",
          "type": "address"
        }
      ],
      "name": "denyAccessRequest",
      "outputs": [],
      "stateMutability": "nonpayable",
      "type": "function"
    },
    {
      "inputs": [],
      "name": "getAccessList",
      "outputs": [
        {
          "internalType": "address[]",
          "name": "",
          "type": "address[]"
        }
      ],
      "stateMutability": "view",
      "type": "function"
    },
    {
      "inputs": [],
      "name": "getAccessRequests",
      "outputs": [
        {
          "internalType": "address[]",
          "name": "",
          "type": "address[]"
        }
      ],
      "stateMutability": "view",
      "type": "function"
    },
    {
      "inputs": [
        {
          "internalType": "address",
          "name": "recordOwner",
          "type": "address"
        }
      ],
      "name": "getHealthRecord",
      "outputs": [
        {
          "internalType": "string",
          "name": "",
          "type": "string"
        }
      ],
      "stateMutability": "view",
      "type": "function"
    },
    {
      "inputs": [],
      "name": "getUpdates",
      "outputs": [
        {
          "internalType": "address[]",
          "name": "",
          "type": "address[]"
        },
        {
          "internalType": "uint256[]",
          "name": "",
          "type": "uint256[]"
        },
        {
          "internalType": "string[]",
          "name": "",
          "type": "string[]"
        }
      ],
      "stateMutability": "view",
      "type": "function"
    },
    {
      "inputs": [
        {
          "internalType": "address",
          "name": "requester",
          "type": "address"
        }
      ],
      "name": "grantAccess",
      "outputs": [],
      "stateMutability": "nonpayable",
      "type": "function"
    },
    {
      "inputs": [
        {
          "internalType": "address",
          "name": "owner",
          "type": "address"
        }
      ],
      "name": "hasAccess",
      "outputs": [
        {
          "internalType": "bool",
          "name": "",
          "type": "bool"
        }
      ],
      "stateMutability": "view",
      "type": "function"
    },
    {
      "inputs": [
        {
          "internalType": "address",
          "name": "owner",
          "type": "address"
        }
      ],
      "name": "hasRequestedAccess",
      "outputs": [
        {
          "internalType": "bool",
          "name": "",
          "type": "bool"
        }
      ],
      "stateMutability": "view",
      "type": "function"
    },
    {
      "inputs": [
        {
          "internalType": "address",
          "name": "recordOwner",
          "type": "address"
        }
      ],
      "name": "requestAccess",
      "outputs": [],
      "stateMutability": "nonpayable",
      "type": "function"
    },
    {
      "inputs": [
        {
          "internalType": "address",
          "name": "permissionedUser",
          "type": "address"
        }
      ],
      "name": "revokeAccess",
      "outputs": [],
      "stateMutability": "nonpayable",
      "type": "function"
    },
    {
      "inputs": [
        {
          "internalType": "string",
          "name": "_ipfsHash",
          "type": "string"
        },
        {
          "internalType": "address",
          "name": "owner",
          "type": "address"
        }
      ],
      "name": "setOwner",
      "outputs": [],
      "stateMutability": "nonpayable",
      "type": "function"
    },
    {
      "inputs": [
        {
          "internalType": "address",
          "name": "owner",
          "type": "address"
        }
      ],
      "name": "updateHealthRecord",
      "outputs": [],
      "stateMutability": "nonpayable",
      "type": "function"
    }
  ],
  "bytecode": "0x6080604052348015600f57600080fd5b506133618061001f6000396000f3fe608060405234801561001057600080fd5b50600436106100b45760003560e01c80638d5ddbb3116100715780638d5ddbb31461016357806395a078e814610181578063a8a1d273146101b1578063ad3f65d3146101d1578063b026a987146101ed578063bd8f17521461021d576100b4565b8063022cb271146100b9578063092b25e9146100d55780630ae5e739146100f15780634ad881ea1461010d57806355b63a941461012957806385e6853114610147575b600080fd5b6100d360048036038101906100ce919061248a565b61024d565b005b6100ef60048036038101906100ea91906125fd565b6106b1565b005b61010b6004803603810190610106919061248a565b61088d565b005b6101276004803603810190610122919061248a565b610faa565b005b6101316114c9565b60405161013e9190612717565b60405180910390f35b610161600480360381019061015c919061248a565b611594565b005b61016b611ab3565b6040516101789190612717565b60405180910390f35b61019b6004803603810190610196919061248a565b611b7e565b6040516101a89190612754565b60405180910390f35b6101b9611c11565b6040516101c893929190612978565b60405180910390f35b6101eb60048036038101906101e6919061248a565b611f26565b005b6102076004803603810190610202919061248a565b6121b3565b6040516102149190612754565b60405180910390f35b6102376004803603810190610232919061248a565b612246565b6040516102449190612a0e565b60405180910390f35b600073ffffffffffffffffffffffffffffffffffffffff168173ffffffffffffffffffffffffffffffffffffffff16036102bc576040517f08c379a00000000000000000000000000000000000000000000000000000000081526004016102b390612a7c565b60405180910390fd5b3373ffffffffffffffffffffffffffffffffffffffff168173ffffffffffffffffffffffffffffffffffffffff160361032a576040517f08c379a000000000000000000000000000000000000000000000000000000000815260040161032190612b0e565b60405180910390fd5b600160008273ffffffffffffffffffffffffffffffffffffffff1673ffffffffffffffffffffffffffffffffffffffff16815260200190815260200160002060003373ffffffffffffffffffffffffffffffffffffffff1673ffffffffffffffffffffffffffffffffffffffff16815260200190815260200160002060009054906101000a900460ff16156103f4576040517f08c379a00000000000000000000000000000000000000000000000000000000081526004016103eb90612b7a565b60405180910390fd5b60005b600460008373ffffffffffffffffffffffffffffffffffffffff1673ffffffffffffffffffffffffffffffffffffffff1681526020019081526020016000208054905081101561051e5760011515600260008473ffffffffffffffffffffffffffffffffffffffff1673ffffffffffffffffffffffffffffffffffffffff16815260200190815260200160002060003373ffffffffffffffffffffffffffffffffffffffff1673ffffffffffffffffffffffffffffffffffffffff16815260200190815260200160002060009054906101000a900460ff16151503610511576040517f08c379a000000000000000000000000000000000000000000000000000000000815260040161050890612be6565b60405180910390fd5b80806001019150506103f7565b50600460008273ffffffffffffffffffffffffffffffffffffffff1673ffffffffffffffffffffffffffffffffffffffff168152602001908152602001600020339080600181540180825580915050600190039060005260206000200160009091909190916101000a81548173ffffffffffffffffffffffffffffffffffffffff021916908373ffffffffffffffffffffffffffffffffffffffff1602179055506001600260008373ffffffffffffffffffffffffffffffffffffffff1673ffffffffffffffffffffffffffffffffffffffff16815260200190815260200160002060003373ffffffffffffffffffffffffffffffffffffffff1673ffffffffffffffffffffffffffffffffffffffff16815260200190815260200160002060006101000a81548160ff0219169083151502179055508073ffffffffffffffffffffffffffffffffffffffff163373ffffffffffffffffffffffffffffffffffffffff167f40c7749b16fdfb0d550f20273a7767875059d647af94f5a9610c63ad73dcc79f60405160405180910390a350565b60008060008373ffffffffffffffffffffffffffffffffffffffff1673ffffffffffffffffffffffffffffffffffffffff1681526020019081526020016000206001018054905014610738576040517f08c379a000000000000000000000000000000000000000000000000000000000815260040161072f90612c52565b60405180910390fd5b60008060008373ffffffffffffffffffffffffffffffffffffffff1673ffffffffffffffffffffffffffffffffffffffff16815260200190815260200160002090508281600001908161078b9190612e7e565b508060010160405180606001604052803373ffffffffffffffffffffffffffffffffffffffff1681526020014281526020016040518060400160405280601781526020017f496e697469616c207265636f7264206372656174696f6e000000000000000000815250815250908060018154018082558091505060019003906000526020600020906003020160009091909190915060008201518160000160006101000a81548173ffffffffffffffffffffffffffffffffffffffff021916908373ffffffffffffffffffffffffffffffffffffffff1602179055506020820151816001015560408201518160020190816108859190612e7e565b505050505050565b600073ffffffffffffffffffffffffffffffffffffffff168173ffffffffffffffffffffffffffffffffffffffff16036108fc576040517f08c379a00000000000000000000000000000000000000000000000000000000081526004016108f390612f9c565b60405180910390fd5b600160003373ffffffffffffffffffffffffffffffffffffffff1673ffffffffffffffffffffffffffffffffffffffff16815260200190815260200160002060008273ffffffffffffffffffffffffffffffffffffffff1673ffffffffffffffffffffffffffffffffffffffff16815260200190815260200160002060009054906101000a900460ff16156109c6576040517f08c379a00000000000000000000000000000000000000000000000000000000081526004016109bd90612b7a565b60405180910390fd5b600260003373ffffffffffffffffffffffffffffffffffffffff1673ffffffffffffffffffffffffffffffffffffffff16815260200190815260200160002060008273ffffffffffffffffffffffffffffffffffffffff1673ffffffffffffffffffffffffffffffffffffffff16815260200190815260200160002060009054906101000a900460ff16610a8f576040517f08c379a0000000000000000000000000000000000000000000000000000000008152600401610a8690613008565b60405180910390fd5b60018060003373ffffffffffffffffffffffffffffffffffffffff1673ffffffffffffffffffffffffffffffffffffffff16815260200190815260200160002060008373ffffffffffffffffffffffffffffffffffffffff1673ffffffffffffffffffffffffffffffffffffffff16815260200190815260200160002060006101000a81548160ff021916908315150217905550600360003373ffffffffffffffffffffffffffffffffffffffff1673ffffffffffffffffffffffffffffffffffffffff168152602001908152602001600020819080600181540180825580915050600190039060005260206000200160009091909190916101000a81548173ffffffffffffffffffffffffffffffffffffffff021916908373ffffffffffffffffffffffffffffffffffffffff16021790555060005b600460003373ffffffffffffffffffffffffffffffffffffffff1673ffffffffffffffffffffffffffffffffffffffff16815260200190815260200160002080549050811015610eb7578173ffffffffffffffffffffffffffffffffffffffff16600460003373ffffffffffffffffffffffffffffffffffffffff1673ffffffffffffffffffffffffffffffffffffffff1681526020019081526020016000208281548110610c7857610c77613028565b5b9060005260206000200160009054906101000a900473ffffffffffffffffffffffffffffffffffffffff1673ffffffffffffffffffffffffffffffffffffffff1603610eaa57600460003373ffffffffffffffffffffffffffffffffffffffff1673ffffffffffffffffffffffffffffffffffffffff1681526020019081526020016000206001600460003373ffffffffffffffffffffffffffffffffffffffff1673ffffffffffffffffffffffffffffffffffffffff16815260200190815260200160002080549050610d4c9190613086565b81548110610d5d57610d5c613028565b5b9060005260206000200160009054906101000a900473ffffffffffffffffffffffffffffffffffffffff16600460003373ffffffffffffffffffffffffffffffffffffffff1673ffffffffffffffffffffffffffffffffffffffff1681526020019081526020016000208281548110610dd957610dd8613028565b5b9060005260206000200160006101000a81548173ffffffffffffffffffffffffffffffffffffffff021916908373ffffffffffffffffffffffffffffffffffffffff160217905550600460003373ffffffffffffffffffffffffffffffffffffffff1673ffffffffffffffffffffffffffffffffffffffff168152602001908152602001600020805480610e7057610e6f6130ba565b5b6001900381819060005260206000200160006101000a81549073ffffffffffffffffffffffffffffffffffffffff02191690559055610eb7565b8080600101915050610bc6565b506000600260003373ffffffffffffffffffffffffffffffffffffffff1673ffffffffffffffffffffffffffffffffffffffff16815260200190815260200160002060008373ffffffffffffffffffffffffffffffffffffffff1673ffffffffffffffffffffffffffffffffffffffff16815260200190815260200160002060006101000a81548160ff0219169083151502179055508073ffffffffffffffffffffffffffffffffffffffff163373ffffffffffffffffffffffffffffffffffffffff167f4a6622bd49095654521c5384cbd9132dcf894fc61a9279e035e345f0b2759efb60405160405180910390a350565b600073ffffffffffffffffffffffffffffffffffffffff168173ffffffffffffffffffffffffffffffffffffffff1603611019576040517f08c379a000000000000000000000000000000000000000000000000000000000815260040161101090613135565b60405180910390fd5b600260003373ffffffffffffffffffffffffffffffffffffffff1673ffffffffffffffffffffffffffffffffffffffff16815260200190815260200160002060008273ffffffffffffffffffffffffffffffffffffffff1673ffffffffffffffffffffffffffffffffffffffff16815260200190815260200160002060009054906101000a900460ff166110e2576040517f08c379a00000000000000000000000000000000000000000000000000000000081526004016110d990613008565b60405180910390fd5b60005b600460003373ffffffffffffffffffffffffffffffffffffffff1673ffffffffffffffffffffffffffffffffffffffff168152602001908152602001600020805490508110156113d6578173ffffffffffffffffffffffffffffffffffffffff16600460003373ffffffffffffffffffffffffffffffffffffffff1673ffffffffffffffffffffffffffffffffffffffff168152602001908152602001600020828154811061119757611196613028565b5b9060005260206000200160009054906101000a900473ffffffffffffffffffffffffffffffffffffffff1673ffffffffffffffffffffffffffffffffffffffff16036113c957600460003373ffffffffffffffffffffffffffffffffffffffff1673ffffffffffffffffffffffffffffffffffffffff1681526020019081526020016000206001600460003373ffffffffffffffffffffffffffffffffffffffff1673ffffffffffffffffffffffffffffffffffffffff1681526020019081526020016000208054905061126b9190613086565b8154811061127c5761127b613028565b5b9060005260206000200160009054906101000a900473ffffffffffffffffffffffffffffffffffffffff16600460003373ffffffffffffffffffffffffffffffffffffffff1673ffffffffffffffffffffffffffffffffffffffff16815260200190815260200160002082815481106112f8576112f7613028565b5b9060005260206000200160006101000a81548173ffffffffffffffffffffffffffffffffffffffff021916908373ffffffffffffffffffffffffffffffffffffffff160217905550600460003373ffffffffffffffffffffffffffffffffffffffff1673ffffffffffffffffffffffffffffffffffffffff16815260200190815260200160002080548061138f5761138e6130ba565b5b6001900381819060005260206000200160006101000a81549073ffffffffffffffffffffffffffffffffffffffff021916905590556113d6565b80806001019150506110e5565b506000600260003373ffffffffffffffffffffffffffffffffffffffff1673ffffffffffffffffffffffffffffffffffffffff16815260200190815260200160002060008373ffffffffffffffffffffffffffffffffffffffff1673ffffffffffffffffffffffffffffffffffffffff16815260200190815260200160002060006101000a81548160ff0219169083151502179055508073ffffffffffffffffffffffffffffffffffffffff163373ffffffffffffffffffffffffffffffffffffffff167ffaa91a4293100db4c91cac682ba7d5cce292557de7ee5b2a6a1bb26d1a51a31460405160405180910390a350565b6060600460003373ffffffffffffffffffffffffffffffffffffffff1673ffffffffffffffffffffffffffffffffffffffff16815260200190815260200160002080548060200260200160405190810160405280929190818152602001828054801561158a57602002820191906000526020600020905b8160009054906101000a900473ffffffffffffffffffffffffffffffffffffffff1673ffffffffffffffffffffffffffffffffffffffff1681526020019060010190808311611540575b5050505050905090565b600073ffffffffffffffffffffffffffffffffffffffff168173ffffffffffffffffffffffffffffffffffffffff1603611603576040517f08c379a00000000000000000000000000000000000000000000000000000000081526004016115fa90612f9c565b60405180910390fd5b600160003373ffffffffffffffffffffffffffffffffffffffff1673ffffffffffffffffffffffffffffffffffffffff16815260200190815260200160002060008273ffffffffffffffffffffffffffffffffffffffff1673ffffffffffffffffffffffffffffffffffffffff16815260200190815260200160002060009054906101000a900460ff166116cc576040517f08c379a00000000000000000000000000000000000000000000000000000000081526004016116c3906131a1565b60405180910390fd5b6000600160003373ffffffffffffffffffffffffffffffffffffffff1673ffffffffffffffffffffffffffffffffffffffff16815260200190815260200160002060008373ffffffffffffffffffffffffffffffffffffffff1673ffffffffffffffffffffffffffffffffffffffff16815260200190815260200160002060006101000a81548160ff02191690831515021790555060005b600360003373ffffffffffffffffffffffffffffffffffffffff1673ffffffffffffffffffffffffffffffffffffffff16815260200190815260200160002080549050811015611a55578173ffffffffffffffffffffffffffffffffffffffff16600360003373ffffffffffffffffffffffffffffffffffffffff1673ffffffffffffffffffffffffffffffffffffffff168152602001908152602001600020828154811061181657611815613028565b5b9060005260206000200160009054906101000a900473ffffffffffffffffffffffffffffffffffffffff1673ffffffffffffffffffffffffffffffffffffffff1603611a4857600360003373ffffffffffffffffffffffffffffffffffffffff1673ffffffffffffffffffffffffffffffffffffffff1681526020019081526020016000206001600360003373ffffffffffffffffffffffffffffffffffffffff1673ffffffffffffffffffffffffffffffffffffffff168152602001908152602001600020805490506118ea9190613086565b815481106118fb576118fa613028565b5b9060005260206000200160009054906101000a900473ffffffffffffffffffffffffffffffffffffffff16600360003373ffffffffffffffffffffffffffffffffffffffff1673ffffffffffffffffffffffffffffffffffffffff168152602001908152602001600020828154811061197757611976613028565b5b9060005260206000200160006101000a81548173ffffffffffffffffffffffffffffffffffffffff021916908373ffffffffffffffffffffffffffffffffffffffff160217905550600360003373ffffffffffffffffffffffffffffffffffffffff1673ffffffffffffffffffffffffffffffffffffffff168152602001908152602001600020805480611a0e57611a0d6130ba565b5b6001900381819060005260206000200160006101000a81549073ffffffffffffffffffffffffffffffffffffffff02191690559055611a55565b8080600101915050611764565b508073ffffffffffffffffffffffffffffffffffffffff163373ffffffffffffffffffffffffffffffffffffffff167f825c8be24eb0df19500f63e86c29e7d0d951e73056b889b891d85e40938d9b6e60405160405180910390a350565b6060600360003373ffffffffffffffffffffffffffffffffffffffff1673ffffffffffffffffffffffffffffffffffffffff168152602001908152602001600020805480602002602001604051908101604052809291908181526020018280548015611b7457602002820191906000526020600020905b8160009054906101000a900473ffffffffffffffffffffffffffffffffffffffff1673ffffffffffffffffffffffffffffffffffffffff1681526020019060010190808311611b2a575b5050505050905090565b6000600160008373ffffffffffffffffffffffffffffffffffffffff1673ffffffffffffffffffffffffffffffffffffffff16815260200190815260200160002060003373ffffffffffffffffffffffffffffffffffffffff1673ffffffffffffffffffffffffffffffffffffffff16815260200190815260200160002060009054906101000a900460ff169050919050565b606080606060008060003373ffffffffffffffffffffffffffffffffffffffff1673ffffffffffffffffffffffffffffffffffffffff168152602001908152602001600020905060008160010180549050905060008167ffffffffffffffff811115611c8057611c7f6124d2565b5b604051908082528060200260200182016040528015611cae5781602001602082028036833780820191505090505b50905060008267ffffffffffffffff811115611ccd57611ccc6124d2565b5b604051908082528060200260200182016040528015611cfb5781602001602082028036833780820191505090505b50905060008367ffffffffffffffff811115611d1a57611d196124d2565b5b604051908082528060200260200182016040528015611d4d57816020015b6060815260200190600190039081611d385790505b50905060005b84811015611f1257856001018181548110611d7157611d70613028565b5b906000526020600020906003020160000160009054906101000a900473ffffffffffffffffffffffffffffffffffffffff16848281518110611db657611db5613028565b5b602002602001019073ffffffffffffffffffffffffffffffffffffffff16908173ffffffffffffffffffffffffffffffffffffffff1681525050856001018181548110611e0657611e05613028565b5b906000526020600020906003020160010154838281518110611e2b57611e2a613028565b5b602002602001018181525050856001018181548110611e4d57611e4c613028565b5b90600052602060002090600302016002018054611e6990612ca1565b80601f0160208091040260200160405190810160405280929190818152602001828054611e9590612ca1565b8015611ee25780601f10611eb757610100808354040283529160200191611ee2565b820191906000526020600020905b815481529060010190602001808311611ec557829003601f168201915b5050505050828281518110611efa57611ef9613028565b5b60200260200101819052508080600101915050611d53565b508282829750975097505050505050909192565b8073ffffffffffffffffffffffffffffffffffffffff163373ffffffffffffffffffffffffffffffffffffffff161480611fe65750600160008273ffffffffffffffffffffffffffffffffffffffff1673ffffffffffffffffffffffffffffffffffffffff16815260200190815260200160002060003373ffffffffffffffffffffffffffffffffffffffff1673ffffffffffffffffffffffffffffffffffffffff16815260200190815260200160002060009054906101000a900460ff165b612025576040517f08c379a000000000000000000000000000000000000000000000000000000000815260040161201c90613233565b60405180910390fd5b60008060008373ffffffffffffffffffffffffffffffffffffffff1673ffffffffffffffffffffffffffffffffffffffff16815260200190815260200160002090508060010160405180606001604052803373ffffffffffffffffffffffffffffffffffffffff1681526020014281526020016040518060400160405280600e81526020017f5265636f72642075706461746564000000000000000000000000000000000000815250815250908060018154018082558091505060019003906000526020600020906003020160009091909190915060008201518160000160006101000a81548173ffffffffffffffffffffffffffffffffffffffff021916908373ffffffffffffffffffffffffffffffffffffffff1602179055506020820151816001015560408201518160020190816121609190612e7e565b5050508173ffffffffffffffffffffffffffffffffffffffff167f496728c3966d39323f4b0f6f4a7a5e1f1cbbc87338b4a1d5942049e331ae28176040516121a79061329f565b60405180910390a25050565b6000600260008373ffffffffffffffffffffffffffffffffffffffff1673ffffffffffffffffffffffffffffffffffffffff16815260200190815260200160002060003373ffffffffffffffffffffffffffffffffffffffff1673ffffffffffffffffffffffffffffffffffffffff16815260200190815260200160002060009054906101000a900460ff169050919050565b60603373ffffffffffffffffffffffffffffffffffffffff168273ffffffffffffffffffffffffffffffffffffffff1614806123085750600160008373ffffffffffffffffffffffffffffffffffffffff1673ffffffffffffffffffffffffffffffffffffffff16815260200190815260200160002060003373ffffffffffffffffffffffffffffffffffffffff1673ffffffffffffffffffffffffffffffffffffffff16815260200190815260200160002060009054906101000a900460ff165b612347576040517f08c379a000000000000000000000000000000000000000000000000000000000815260040161233e9061330b565b60405180910390fd5b6000808373ffffffffffffffffffffffffffffffffffffffff1673ffffffffffffffffffffffffffffffffffffffff168152602001908152602001600020600001805461239390612ca1565b80601f01602080910402602001604051908101604052809291908181526020018280546123bf90612ca1565b801561240c5780601f106123e15761010080835404028352916020019161240c565b820191906000526020600020905b8154815290600101906020018083116123ef57829003601f168201915b50505050509050919050565b6000604051905090565b600080fd5b600080fd5b600073ffffffffffffffffffffffffffffffffffffffff82169050919050565b60006124578261242c565b9050919050565b6124678161244c565b811461247257600080fd5b50565b6000813590506124848161245e565b92915050565b6000602082840312156124a05761249f612422565b5b60006124ae84828501612475565b91505092915050565b600080fd5b600080fd5b6000601f19601f8301169050919050565b7f4e487b7100000000000000000000000000000000000000000000000000000000600052604160045260246000fd5b61250a826124c1565b810181811067ffffffffffffffff82111715612529576125286124d2565b5b80604052505050565b600061253c612418565b90506125488282612501565b919050565b600067ffffffffffffffff821115612568576125676124d2565b5b612571826124c1565b9050602081019050919050565b82818337600083830152505050565b60006125a061259b8461254d565b612532565b9050828152602081018484840111156125bc576125bb6124bc565b5b6125c784828561257e565b509392505050565b600082601f8301126125e4576125e36124b7565b5b81356125f484826020860161258d565b91505092915050565b6000806040838503121561261457612613612422565b5b600083013567ffffffffffffffff81111561263257612631612427565b5b61263e858286016125cf565b925050602061264f85828601612475565b9150509250929050565b600081519050919050565b600082825260208201905092915050565b6000819050602082019050919050565b61268e8161244c565b82525050565b60006126a08383612685565b60208301905092915050565b6000602082019050919050565b60006126c482612659565b6126ce8185612664565b93506126d983612675565b8060005b8381101561270a5781516126f18882612694565b97506126fc836126ac565b9250506001810190506126dd565b5085935050505092915050565b6000602082019050818103600083015261273181846126b9565b905092915050565b60008115159050919050565b61274e81612739565b82525050565b60006020820190506127696000830184612745565b92915050565b600081519050919050565b600082825260208201905092915050565b6000819050602082019050919050565b6000819050919050565b6127ae8161279b565b82525050565b60006127c083836127a5565b60208301905092915050565b6000602082019050919050565b60006127e48261276f565b6127ee818561277a565b93506127f98361278b565b8060005b8381101561282a57815161281188826127b4565b975061281c836127cc565b9250506001810190506127fd565b5085935050505092915050565b600081519050919050565b600082825260208201905092915050565b6000819050602082019050919050565b600081519050919050565b600082825260208201905092915050565b60005b8381101561289d578082015181840152602081019050612882565b60008484015250505050565b60006128b482612863565b6128be818561286e565b93506128ce81856020860161287f565b6128d7816124c1565b840191505092915050565b60006128ee83836128a9565b905092915050565b6000602082019050919050565b600061290e82612837565b6129188185612842565b93508360208202850161292a85612853565b8060005b85811015612966578484038952815161294785826128e2565b9450612952836128f6565b925060208a0199505060018101905061292e565b50829750879550505050505092915050565b6000606082019050818103600083015261299281866126b9565b905081810360208301526129a681856127d9565b905081810360408301526129ba8184612903565b9050949350505050565b600082825260208201905092915050565b60006129e082612863565b6129ea81856129c4565b93506129fa81856020860161287f565b612a03816124c1565b840191505092915050565b60006020820190508181036000830152612a2881846129d5565b905092915050565b7f496e76616c6964207265636f7264206f776e6572000000000000000000000000600082015250565b6000612a666014836129c4565b9150612a7182612a30565b602082019050919050565b60006020820190508181036000830152612a9581612a59565b9050919050565b7f43616e6e6f7420726571756573742061636365737320746f20796f7572206f7760008201527f6e207265636f7264000000000000000000000000000000000000000000000000602082015250565b6000612af86028836129c4565b9150612b0382612a9c565b604082019050919050565b60006020820190508181036000830152612b2781612aeb565b9050919050565b7f41636365737320616c7265616479206772616e74656400000000000000000000600082015250565b6000612b646016836129c4565b9150612b6f82612b2e565b602082019050919050565b60006020820190508181036000830152612b9381612b57565b9050919050565b7f41636365737320616c7265616479207265717565737465640000000000000000600082015250565b6000612bd06018836129c4565b9150612bdb82612b9a565b602082019050919050565b60006020820190508181036000830152612bff81612bc3565b9050919050565b7f5265636f7264206f776e657220616c7265616479207365740000000000000000600082015250565b6000612c3c6018836129c4565b9150612c4782612c06565b602082019050919050565b60006020820190508181036000830152612c6b81612c2f565b9050919050565b7f4e487b7100000000000000000000000000000000000000000000000000000000600052602260045260246000fd5b60006002820490506001821680612cb957607f821691505b602082108103612ccc57612ccb612c72565b5b50919050565b60008190508160005260206000209050919050565b60006020601f8301049050919050565b600082821b905092915050565b600060088302612d347fffffffffffffffffffffffffffffffffffffffffffffffffffffffffffffffff82612cf7565b612d3e8683612cf7565b95508019841693508086168417925050509392505050565b6000819050919050565b6000612d7b612d76612d718461279b565b612d56565b61279b565b9050919050565b6000819050919050565b612d9583612d60565b612da9612da182612d82565b848454612d04565b825550505050565b600090565b612dbe612db1565b612dc9818484612d8c565b505050565b5b81811015612ded57612de2600082612db6565b600181019050612dcf565b5050565b601f821115612e3257612e0381612cd2565b612e0c84612ce7565b81016020851015612e1b578190505b612e2f612e2785612ce7565b830182612dce565b50505b505050565b600082821c905092915050565b6000612e5560001984600802612e37565b1980831691505092915050565b6000612e6e8383612e44565b9150826002028217905092915050565b612e8782612863565b67ffffffffffffffff811115612ea057612e9f6124d2565b5b612eaa8254612ca1565b612eb5828285612df1565b600060209050601f831160018114612ee85760008415612ed6578287015190505b612ee08582612e62565b865550612f48565b601f198416612ef686612cd2565b60005b82811015612f1e57848901518255600182019150602085019450602081019050612ef9565b86831015612f3b5784890151612f37601f891682612e44565b8355505b6001600288020188555050505b505050505050565b7f496e76616c6964206772616e7465652061646472657373000000000000000000600082015250565b6000612f866017836129c4565b9150612f9182612f50565b602082019050919050565b60006020820190508181036000830152612fb581612f79565b9050919050565b7f4e6f20616363657373207265717565737420666f756e64000000000000000000600082015250565b6000612ff26017836129c4565b9150612ffd82612fbc565b602082019050919050565b6000602082019050818103600083015261302181612fe5565b9050919050565b7f4e487b7100000000000000000000000000000000000000000000000000000000600052603260045260246000fd5b7f4e487b7100000000000000000000000000000000000000000000000000000000600052601160045260246000fd5b60006130918261279b565b915061309c8361279b565b92508282039050818111156130b4576130b3613057565b5b92915050565b7f4e487b7100000000000000000000000000000000000000000000000000000000600052603160045260246000fd5b7f496e76616c696420726571756573746572000000000000000000000000000000600082015250565b600061311f6011836129c4565b915061312a826130e9565b602082019050919050565b6000602082019050818103600083015261314e81613112565b9050919050565b7f416363657373206e6f74206772616e7465640000000000000000000000000000600082015250565b600061318b6012836129c4565b915061319682613155565b602082019050919050565b600060208201905081810360008301526131ba8161317e565b9050919050565b7f4e6f7420617574686f72697a656420746f20757064617465207468697320726560008201527f636f726400000000000000000000000000000000000000000000000000000000602082015250565b600061321d6024836129c4565b9150613228826131c1565b604082019050919050565b6000602082019050818103600083015261324c81613210565b9050919050565b7f2000000000000000000000000000000000000000000000000000000000000000600082015250565b60006132896001836129c4565b915061329482613253565b602082019050919050565b600060208201905081810360008301526132b88161327c565b9050919050565b7f4163636573732064656e69656400000000000000000000000000000000000000600082015250565b60006132f5600d836129c4565b9150613300826132bf565b602082019050919050565b60006020820190508181036000830152613324816132e8565b905091905056fea264697066735822122045a5b9e9a30d000e6350e5228449811edb5ab9bc41356a6bf0b5a32acb4f1a8a64736f6c634300081c0033",
  "linkReferences": {},
  "deployedLinkReferences": {}
}