{
  "_format": "hh-sol-artifact-1",
  "contractName": "HealthRecords",
  "sourceName": "contracts/HealthRecords.sol",
  "abi": [
    {
      "anonymous": false,
      "inputs": [
        {
          "indexed": true,
          "internalType": "address",
          "name": "owner",
          "type": "address"
        },
        {
          "indexed": true,
          "internalType": "address",
          "name": "requester",
          "type": "address"
        }
      ],
      "name": "AccessRequestAccepted",
      "type": "event"
    },
    {
      "anonymous": false,
      "inputs": [
        {
          "indexed": true,
          "internalType": "address",
          "name": "owner",
          "type": "address"
        },
        {
          "indexed": true,
          "internalType": "address",
          "name": "requester",
          "type": "address"
        }
      ],
      "name": "AccessRequestRejected",
      "type": "event"
    },
    {
      "anonymous": false,
      "inputs": [
        {
          "indexed": true,
          "internalType": "address",
          "name": "owner",
          "type": "address"
        },
        {
          "indexed": true,
          "internalType": "address",
          "name": "requester",
          "type": "address"
        }
      ],
      "name": "AccessRequested",
      "type": "event"
    },
    {
      "anonymous": false,
      "inputs": [
        {
          "indexed": true,
          "internalType": "address",
          "name": "owner",
          "type": "address"
        },
        {
          "indexed": true,
          "internalType": "address",
          "name": "user",
          "type": "address"
        }
      ],
      "name": "AccessRevoked",
      "type": "event"
    },
    {
      "anonymous": false,
      "inputs": [
        {
          "indexed": true,
          "internalType": "address",
          "name": "user",
          "type": "address"
        }
      ],
      "name": "DIDVerified",
      "type": "event"
    },
    {
      "anonymous": false,
      "inputs": [
        {
          "indexed": true,
          "internalType": "address",
          "name": "owner",
          "type": "address"
        },
        {
          "indexed": true,
          "internalType": "address",
          "name": "updater",
          "type": "address"
        }
      ],
      "name": "HealthRecordUpdated",
      "type": "event"
    },
    {
      "inputs": [
        {
          "internalType": "address",
          "name": "requester",
          "type": "address"
        }
      ],
      "name": "denyAccessRequest",
      "outputs": [],
      "stateMutability": "nonpayable",
      "type": "function"
    },
    {
      "inputs": [],
      "name": "getAccessList",
      "outputs": [
        {
          "internalType": "address[]",
          "name": "",
          "type": "address[]"
        }
      ],
      "stateMutability": "view",
      "type": "function"
    },
    {
      "inputs": [],
      "name": "getAccessRequests",
      "outputs": [
        {
          "internalType": "address[]",
          "name": "",
          "type": "address[]"
        },
        {
          "internalType": "string[]",
          "name": "",
          "type": "string[]"
        }
      ],
      "stateMutability": "view",
      "type": "function"
    },
    {
      "inputs": [
        {
          "internalType": "address",
          "name": "owner",
          "type": "address"
        }
      ],
      "name": "getHealthRecord",
      "outputs": [
        {
          "internalType": "string",
          "name": "",
          "type": "string"
        }
      ],
      "stateMutability": "view",
      "type": "function"
    },
    {
      "inputs": [],
      "name": "getOwnHealthRecord",
      "outputs": [
        {
          "internalType": "string",
          "name": "",
          "type": "string"
        }
      ],
      "stateMutability": "view",
      "type": "function"
    },
    {
      "inputs": [],
      "name": "getUpdates",
      "outputs": [
        {
          "internalType": "address[]",
          "name": "",
          "type": "address[]"
        },
        {
          "internalType": "uint256[]",
          "name": "",
          "type": "uint256[]"
        },
        {
          "internalType": "string[]",
          "name": "",
          "type": "string[]"
        }
      ],
      "stateMutability": "view",
      "type": "function"
    },
    {
      "inputs": [
        {
          "internalType": "address",
          "name": "requester",
          "type": "address"
        }
      ],
      "name": "grantAccess",
      "outputs": [],
      "stateMutability": "nonpayable",
      "type": "function"
    },
    {
      "inputs": [
        {
          "internalType": "address",
          "name": "owner",
          "type": "address"
        }
      ],
      "name": "hasAccess",
      "outputs": [
        {
          "internalType": "bool",
          "name": "",
          "type": "bool"
        }
      ],
      "stateMutability": "view",
      "type": "function"
    },
    {
      "inputs": [
        {
          "internalType": "address",
          "name": "owner",
          "type": "address"
        }
      ],
      "name": "hasRequestedAccess",
      "outputs": [
        {
          "internalType": "bool",
          "name": "",
          "type": "bool"
        }
      ],
      "stateMutability": "view",
      "type": "function"
    },
    {
      "inputs": [
        {
          "internalType": "address",
          "name": "owner",
          "type": "address"
        },
        {
          "internalType": "string",
          "name": "ipfsHash",
          "type": "string"
        }
      ],
      "name": "initializePatientRecord",
      "outputs": [],
      "stateMutability": "nonpayable",
      "type": "function"
    },
    {
      "inputs": [
        {
          "internalType": "address",
          "name": "owner",
          "type": "address"
        },
        {
          "internalType": "string",
          "name": "note",
          "type": "string"
        }
      ],
      "name": "requestAccess",
      "outputs": [],
      "stateMutability": "nonpayable",
      "type": "function"
    },
    {
      "inputs": [
        {
          "internalType": "address",
          "name": "permissionedUser",
          "type": "address"
        }
      ],
      "name": "revokeAccess",
      "outputs": [],
      "stateMutability": "nonpayable",
      "type": "function"
    },
    {
      "inputs": [
        {
          "internalType": "string",
          "name": "did",
          "type": "string"
        }
      ],
      "name": "setDID",
      "outputs": [],
      "stateMutability": "nonpayable",
      "type": "function"
    },
    {
      "inputs": [
        {
          "internalType": "address",
          "name": "owner",
          "type": "address"
        },
        {
          "internalType": "string",
          "name": "newIpfsHash",
          "type": "string"
        },
        {
          "internalType": "string",
          "name": "description",
          "type": "string"
        }
      ],
      "name": "updatePatientRecord",
      "outputs": [],
      "stateMutability": "nonpayable",
      "type": "function"
    },
    {
      "inputs": [
        {
          "internalType": "address",
          "name": "user",
          "type": "address"
        }
      ],
      "name": "verifyDID",
      "outputs": [
        {
          "internalType": "bool",
          "name": "",
          "type": "bool"
        }
      ],
      "stateMutability": "view",
      "type": "function"
    }
  ],
  "bytecode": "0x6080604052348015600f57600080fd5b50613f258061001f6000396000f3fe608060405234801561001057600080fd5b50600436106100f55760003560e01c806385e6853111610097578063a8a1d27311610066578063a8a1d2731461025d578063b026a9871461027d578063bd8f1752146102ad578063c7c9508b146102dd576100f5565b806385e68531146101c35780638d5ddbb3146101df57806395a078e8146101fd57806395d5a3f01461022d576100f5565b80632f6d4a59116100d35780632f6d4a59146101505780634ad881ea1461016c57806355b63a94146101885780635f02acb0146101a7576100f5565b80630ae5e739146100fa57806312f1d3f514610116578063274a827b14610134575b600080fd5b610114600480360381019061010f9190612d7e565b6102f9565b005b61011e610a25565b60405161012b9190612e3b565b60405180910390f35b61014e60048036038101906101499190612f92565b610af3565b005b61016a60048036038101906101659190612fdb565b610b43565b005b61018660048036038101906101819190612d7e565b610f2a565b005b610190611521565b60405161019e929190613201565b60405180910390f35b6101c160048036038101906101bc9190612fdb565b611809565b005b6101dd60048036038101906101d89190612d7e565b611b4c565b005b6101e761206b565b6040516101f49190613238565b60405180910390f35b61021760048036038101906102129190612d7e565b612136565b6040516102249190613275565b60405180910390f35b61024760048036038101906102429190612d7e565b6121c9565b6040516102549190613275565b60405180910390f35b610265612220565b60405161027493929190613358565b60405180910390f35b61029760048036038101906102929190612d7e565b6125de565b6040516102a49190613275565b60405180910390f35b6102c760048036038101906102c29190612d7e565b612671565b6040516102d49190612e3b565b60405180910390f35b6102f760048036038101906102f291906133a4565b612854565b005b600073ffffffffffffffffffffffffffffffffffffffff168173ffffffffffffffffffffffffffffffffffffffff1603610368576040517f08c379a000000000000000000000000000000000000000000000000000000000815260040161035f9061347b565b60405180910390fd5b600360003373ffffffffffffffffffffffffffffffffffffffff1673ffffffffffffffffffffffffffffffffffffffff16815260200190815260200160002060008273ffffffffffffffffffffffffffffffffffffffff1673ffffffffffffffffffffffffffffffffffffffff16815260200190815260200160002060009054906101000a900460ff1615610432576040517f08c379a0000000000000000000000000000000000000000000000000000000008152600401610429906134e7565b60405180910390fd5b600460003373ffffffffffffffffffffffffffffffffffffffff1673ffffffffffffffffffffffffffffffffffffffff16815260200190815260200160002060008273ffffffffffffffffffffffffffffffffffffffff1673ffffffffffffffffffffffffffffffffffffffff16815260200190815260200160002060009054906101000a900460ff166104fb576040517f08c379a00000000000000000000000000000000000000000000000000000000081526004016104f290613553565b60405180910390fd5b6001600360003373ffffffffffffffffffffffffffffffffffffffff1673ffffffffffffffffffffffffffffffffffffffff16815260200190815260200160002060008373ffffffffffffffffffffffffffffffffffffffff1673ffffffffffffffffffffffffffffffffffffffff16815260200190815260200160002060006101000a81548160ff021916908315150217905550600560003373ffffffffffffffffffffffffffffffffffffffff1673ffffffffffffffffffffffffffffffffffffffff168152602001908152602001600020819080600181540180825580915050600190039060005260206000200160009091909190916101000a81548173ffffffffffffffffffffffffffffffffffffffff021916908373ffffffffffffffffffffffffffffffffffffffff1602179055506000600660003373ffffffffffffffffffffffffffffffffffffffff1673ffffffffffffffffffffffffffffffffffffffff16815260200190815260200160002080549050905060005b81811015610931578273ffffffffffffffffffffffffffffffffffffffff16600660003373ffffffffffffffffffffffffffffffffffffffff1673ffffffffffffffffffffffffffffffffffffffff16815260200190815260200160002082815481106106ea576106e9613573565b5b906000526020600020906002020160000160009054906101000a900473ffffffffffffffffffffffffffffffffffffffff1673ffffffffffffffffffffffffffffffffffffffff160361092457600660003373ffffffffffffffffffffffffffffffffffffffff1673ffffffffffffffffffffffffffffffffffffffff16815260200190815260200160002060018361078391906135d1565b8154811061079457610793613573565b5b9060005260206000209060020201600660003373ffffffffffffffffffffffffffffffffffffffff1673ffffffffffffffffffffffffffffffffffffffff16815260200190815260200160002082815481106107f3576107f2613573565b5b90600052602060002090600202016000820160009054906101000a900473ffffffffffffffffffffffffffffffffffffffff168160000160006101000a81548173ffffffffffffffffffffffffffffffffffffffff021916908373ffffffffffffffffffffffffffffffffffffffff1602179055506001820181600101908161087c9190613827565b50905050600660003373ffffffffffffffffffffffffffffffffffffffff1673ffffffffffffffffffffffffffffffffffffffff1681526020019081526020016000208054806108cf576108ce61390f565b5b6001900381819060005260206000209060020201600080820160006101000a81549073ffffffffffffffffffffffffffffffffffffffff021916905560018201600061091b9190612caf565b50509055610931565b808060010191505061067a565b506000600460003373ffffffffffffffffffffffffffffffffffffffff1673ffffffffffffffffffffffffffffffffffffffff16815260200190815260200160002060008473ffffffffffffffffffffffffffffffffffffffff1673ffffffffffffffffffffffffffffffffffffffff16815260200190815260200160002060006101000a81548160ff0219169083151502179055508173ffffffffffffffffffffffffffffffffffffffff163373ffffffffffffffffffffffffffffffffffffffff167f4a6622bd49095654521c5384cbd9132dcf894fc61a9279e035e345f0b2759efb60405160405180910390a35050565b60606000803373ffffffffffffffffffffffffffffffffffffffff1673ffffffffffffffffffffffffffffffffffffffff1681526020019081526020016000208054610a7090613634565b80601f0160208091040260200160405190810160405280929190818152602001828054610a9c90613634565b8015610ae95780601f10610abe57610100808354040283529160200191610ae9565b820191906000526020600020905b815481529060010190602001808311610acc57829003601f168201915b5050505050905090565b80600760003373ffffffffffffffffffffffffffffffffffffffff1673ffffffffffffffffffffffffffffffffffffffff1681526020019081526020016000209081610b3f919061393e565b5050565b3373ffffffffffffffffffffffffffffffffffffffff168273ffffffffffffffffffffffffffffffffffffffff1603610bb1576040517f08c379a0000000000000000000000000000000000000000000000000000000008152600401610ba890613a82565b60405180910390fd5b600360008373ffffffffffffffffffffffffffffffffffffffff1673ffffffffffffffffffffffffffffffffffffffff16815260200190815260200160002060003373ffffffffffffffffffffffffffffffffffffffff1673ffffffffffffffffffffffffffffffffffffffff16815260200190815260200160002060009054906101000a900460ff1615610c7b576040517f08c379a0000000000000000000000000000000000000000000000000000000008152600401610c72906134e7565b60405180910390fd5b600460008373ffffffffffffffffffffffffffffffffffffffff1673ffffffffffffffffffffffffffffffffffffffff16815260200190815260200160002060003373ffffffffffffffffffffffffffffffffffffffff1673ffffffffffffffffffffffffffffffffffffffff16815260200190815260200160002060009054906101000a900460ff1615610d45576040517f08c379a0000000000000000000000000000000000000000000000000000000008152600401610d3c90613aee565b60405180910390fd5b600660008373ffffffffffffffffffffffffffffffffffffffff1673ffffffffffffffffffffffffffffffffffffffff16815260200190815260200160002060405180604001604052803373ffffffffffffffffffffffffffffffffffffffff16815260200183815250908060018154018082558091505060019003906000526020600020906002020160009091909190915060008201518160000160006101000a81548173ffffffffffffffffffffffffffffffffffffffff021916908373ffffffffffffffffffffffffffffffffffffffff1602179055506020820151816001019081610e34919061393e565b5050506001600460008473ffffffffffffffffffffffffffffffffffffffff1673ffffffffffffffffffffffffffffffffffffffff16815260200190815260200160002060003373ffffffffffffffffffffffffffffffffffffffff1673ffffffffffffffffffffffffffffffffffffffff16815260200190815260200160002060006101000a81548160ff0219169083151502179055503373ffffffffffffffffffffffffffffffffffffffff168273ffffffffffffffffffffffffffffffffffffffff167f40c7749b16fdfb0d550f20273a7767875059d647af94f5a9610c63ad73dcc79f60405160405180910390a35050565b600073ffffffffffffffffffffffffffffffffffffffff168173ffffffffffffffffffffffffffffffffffffffff1603610f99576040517f08c379a0000000000000000000000000000000000000000000000000000000008152600401610f909061347b565b60405180910390fd5b600360003373ffffffffffffffffffffffffffffffffffffffff1673ffffffffffffffffffffffffffffffffffffffff16815260200190815260200160002060008273ffffffffffffffffffffffffffffffffffffffff1673ffffffffffffffffffffffffffffffffffffffff16815260200190815260200160002060009054906101000a900460ff1615611063576040517f08c379a000000000000000000000000000000000000000000000000000000000815260040161105a906134e7565b60405180910390fd5b600460003373ffffffffffffffffffffffffffffffffffffffff1673ffffffffffffffffffffffffffffffffffffffff16815260200190815260200160002060008273ffffffffffffffffffffffffffffffffffffffff1673ffffffffffffffffffffffffffffffffffffffff16815260200190815260200160002060009054906101000a900460ff1661112c576040517f08c379a000000000000000000000000000000000000000000000000000000000815260040161112390613553565b60405180910390fd5b6000600660003373ffffffffffffffffffffffffffffffffffffffff1673ffffffffffffffffffffffffffffffffffffffff16815260200190815260200160002080549050905060005b8181101561142d578273ffffffffffffffffffffffffffffffffffffffff16600660003373ffffffffffffffffffffffffffffffffffffffff1673ffffffffffffffffffffffffffffffffffffffff16815260200190815260200160002082815481106111e6576111e5613573565b5b906000526020600020906002020160000160009054906101000a900473ffffffffffffffffffffffffffffffffffffffff1673ffffffffffffffffffffffffffffffffffffffff160361142057600660003373ffffffffffffffffffffffffffffffffffffffff1673ffffffffffffffffffffffffffffffffffffffff16815260200190815260200160002060018361127f91906135d1565b815481106112905761128f613573565b5b9060005260206000209060020201600660003373ffffffffffffffffffffffffffffffffffffffff1673ffffffffffffffffffffffffffffffffffffffff16815260200190815260200160002082815481106112ef576112ee613573565b5b90600052602060002090600202016000820160009054906101000a900473ffffffffffffffffffffffffffffffffffffffff168160000160006101000a81548173ffffffffffffffffffffffffffffffffffffffff021916908373ffffffffffffffffffffffffffffffffffffffff160217905550600182018160010190816113789190613827565b50905050600660003373ffffffffffffffffffffffffffffffffffffffff1673ffffffffffffffffffffffffffffffffffffffff1681526020019081526020016000208054806113cb576113ca61390f565b5b6001900381819060005260206000209060020201600080820160006101000a81549073ffffffffffffffffffffffffffffffffffffffff02191690556001820160006114179190612caf565b5050905561142d565b8080600101915050611176565b506000600460003373ffffffffffffffffffffffffffffffffffffffff1673ffffffffffffffffffffffffffffffffffffffff16815260200190815260200160002060008473ffffffffffffffffffffffffffffffffffffffff1673ffffffffffffffffffffffffffffffffffffffff16815260200190815260200160002060006101000a81548160ff0219169083151502179055508173ffffffffffffffffffffffffffffffffffffffff163373ffffffffffffffffffffffffffffffffffffffff167ffaa91a4293100db4c91cac682ba7d5cce292557de7ee5b2a6a1bb26d1a51a31460405160405180910390a35050565b6060806000600660003373ffffffffffffffffffffffffffffffffffffffff1673ffffffffffffffffffffffffffffffffffffffff16815260200190815260200160002080549050905060008167ffffffffffffffff81111561158757611586612e67565b5b6040519080825280602002602001820160405280156115b55781602001602082028036833780820191505090505b50905060008267ffffffffffffffff8111156115d4576115d3612e67565b5b60405190808252806020026020018201604052801561160757816020015b60608152602001906001900390816115f25790505b50905060005b838110156117fb57600660003373ffffffffffffffffffffffffffffffffffffffff1673ffffffffffffffffffffffffffffffffffffffff168152602001908152602001600020818154811061166657611665613573565b5b906000526020600020906002020160000160009054906101000a900473ffffffffffffffffffffffffffffffffffffffff168382815181106116ab576116aa613573565b5b602002602001019073ffffffffffffffffffffffffffffffffffffffff16908173ffffffffffffffffffffffffffffffffffffffff1681525050600660003373ffffffffffffffffffffffffffffffffffffffff1673ffffffffffffffffffffffffffffffffffffffff168152602001908152602001600020818154811061173657611735613573565b5b9060005260206000209060020201600101805461175290613634565b80601f016020809104026020016040519081016040528092919081815260200182805461177e90613634565b80156117cb5780601f106117a0576101008083540402835291602001916117cb565b820191906000526020600020905b8154815290600101906020018083116117ae57829003601f168201915b50505050508282815181106117e3576117e2613573565b5b6020026020010181905250808060010191505061160d565b508181945094505050509091565b6000600260008473ffffffffffffffffffffffffffffffffffffffff1673ffffffffffffffffffffffffffffffffffffffff168152602001908152602001600020805490501461188e576040517f08c379a000000000000000000000000000000000000000000000000000000000815260040161188590613b5a565b60405180910390fd5b60018160405161189e9190613bb6565b908152602001604051809103902060009054906101000a900460ff16156118fa576040517f08c379a00000000000000000000000000000000000000000000000000000000081526004016118f190613c19565b60405180910390fd5b6001600360008473ffffffffffffffffffffffffffffffffffffffff1673ffffffffffffffffffffffffffffffffffffffff16815260200190815260200160002060008473ffffffffffffffffffffffffffffffffffffffff1673ffffffffffffffffffffffffffffffffffffffff16815260200190815260200160002060006101000a81548160ff021916908315150217905550806000808473ffffffffffffffffffffffffffffffffffffffff1673ffffffffffffffffffffffffffffffffffffffff16815260200190815260200160002090816119da919061393e565b50600180826040516119ec9190613bb6565b908152602001604051809103902060006101000a81548160ff021916908315150217905550600260008373ffffffffffffffffffffffffffffffffffffffff1673ffffffffffffffffffffffffffffffffffffffff16815260200190815260200160002060405180606001604052808473ffffffffffffffffffffffffffffffffffffffff1681526020014281526020016040518060400160405280601981526020017f496e697469616c697a6564206865616c7468207265636f726400000000000000815250815250908060018154018082558091505060019003906000526020600020906003020160009091909190915060008201518160000160006101000a81548173ffffffffffffffffffffffffffffffffffffffff021916908373ffffffffffffffffffffffffffffffffffffffff160217905550602082015181600101556040820151816002019081611b45919061393e565b5050505050565b600073ffffffffffffffffffffffffffffffffffffffff168173ffffffffffffffffffffffffffffffffffffffff1603611bbb576040517f08c379a0000000000000000000000000000000000000000000000000000000008152600401611bb290613c85565b60405180910390fd5b600360003373ffffffffffffffffffffffffffffffffffffffff1673ffffffffffffffffffffffffffffffffffffffff16815260200190815260200160002060008273ffffffffffffffffffffffffffffffffffffffff1673ffffffffffffffffffffffffffffffffffffffff16815260200190815260200160002060009054906101000a900460ff16611c84576040517f08c379a0000000000000000000000000000000000000000000000000000000008152600401611c7b90613cf1565b60405180910390fd5b6000600360003373ffffffffffffffffffffffffffffffffffffffff1673ffffffffffffffffffffffffffffffffffffffff16815260200190815260200160002060008373ffffffffffffffffffffffffffffffffffffffff1673ffffffffffffffffffffffffffffffffffffffff16815260200190815260200160002060006101000a81548160ff02191690831515021790555060005b600560003373ffffffffffffffffffffffffffffffffffffffff1673ffffffffffffffffffffffffffffffffffffffff1681526020019081526020016000208054905081101561200d578173ffffffffffffffffffffffffffffffffffffffff16600560003373ffffffffffffffffffffffffffffffffffffffff1673ffffffffffffffffffffffffffffffffffffffff1681526020019081526020016000208281548110611dce57611dcd613573565b5b9060005260206000200160009054906101000a900473ffffffffffffffffffffffffffffffffffffffff1673ffffffffffffffffffffffffffffffffffffffff160361200057600560003373ffffffffffffffffffffffffffffffffffffffff1673ffffffffffffffffffffffffffffffffffffffff1681526020019081526020016000206001600560003373ffffffffffffffffffffffffffffffffffffffff1673ffffffffffffffffffffffffffffffffffffffff16815260200190815260200160002080549050611ea291906135d1565b81548110611eb357611eb2613573565b5b9060005260206000200160009054906101000a900473ffffffffffffffffffffffffffffffffffffffff16600560003373ffffffffffffffffffffffffffffffffffffffff1673ffffffffffffffffffffffffffffffffffffffff1681526020019081526020016000208281548110611f2f57611f2e613573565b5b9060005260206000200160006101000a81548173ffffffffffffffffffffffffffffffffffffffff021916908373ffffffffffffffffffffffffffffffffffffffff160217905550600560003373ffffffffffffffffffffffffffffffffffffffff1673ffffffffffffffffffffffffffffffffffffffff168152602001908152602001600020805480611fc657611fc561390f565b5b6001900381819060005260206000200160006101000a81549073ffffffffffffffffffffffffffffffffffffffff0219169055905561200d565b8080600101915050611d1c565b508073ffffffffffffffffffffffffffffffffffffffff163373ffffffffffffffffffffffffffffffffffffffff167f825c8be24eb0df19500f63e86c29e7d0d951e73056b889b891d85e40938d9b6e60405160405180910390a350565b6060600560003373ffffffffffffffffffffffffffffffffffffffff1673ffffffffffffffffffffffffffffffffffffffff16815260200190815260200160002080548060200260200160405190810160405280929190818152602001828054801561212c57602002820191906000526020600020905b8160009054906101000a900473ffffffffffffffffffffffffffffffffffffffff1673ffffffffffffffffffffffffffffffffffffffff16815260200190600101908083116120e2575b5050505050905090565b6000600360008373ffffffffffffffffffffffffffffffffffffffff1673ffffffffffffffffffffffffffffffffffffffff16815260200190815260200160002060003373ffffffffffffffffffffffffffffffffffffffff1673ffffffffffffffffffffffffffffffffffffffff16815260200190815260200160002060009054906101000a900460ff169050919050565b600080600760008473ffffffffffffffffffffffffffffffffffffffff1673ffffffffffffffffffffffffffffffffffffffff168152602001908152602001600020805461221690613634565b9050119050919050565b60608060606000600260003373ffffffffffffffffffffffffffffffffffffffff1673ffffffffffffffffffffffffffffffffffffffff16815260200190815260200160002080549050905060008167ffffffffffffffff81111561228857612287612e67565b5b6040519080825280602002602001820160405280156122b65781602001602082028036833780820191505090505b50905060008267ffffffffffffffff8111156122d5576122d4612e67565b5b6040519080825280602002602001820160405280156123035781602001602082028036833780820191505090505b50905060008367ffffffffffffffff81111561232257612321612e67565b5b60405190808252806020026020018201604052801561235557816020015b60608152602001906001900390816123405790505b50905060005b848110156125cb57600260003373ffffffffffffffffffffffffffffffffffffffff1673ffffffffffffffffffffffffffffffffffffffff16815260200190815260200160002081815481106123b4576123b3613573565b5b906000526020600020906003020160000160009054906101000a900473ffffffffffffffffffffffffffffffffffffffff168482815181106123f9576123f8613573565b5b602002602001019073ffffffffffffffffffffffffffffffffffffffff16908173ffffffffffffffffffffffffffffffffffffffff1681525050600260003373ffffffffffffffffffffffffffffffffffffffff1673ffffffffffffffffffffffffffffffffffffffff168152602001908152602001600020818154811061248457612483613573565b5b9060005260206000209060030201600101548382815181106124a9576124a8613573565b5b602002602001018181525050600260003373ffffffffffffffffffffffffffffffffffffffff1673ffffffffffffffffffffffffffffffffffffffff168152602001908152602001600020818154811061250657612505613573565b5b9060005260206000209060030201600201805461252290613634565b80601f016020809104026020016040519081016040528092919081815260200182805461254e90613634565b801561259b5780601f106125705761010080835404028352916020019161259b565b820191906000526020600020905b81548152906001019060200180831161257e57829003601f168201915b50505050508282815181106125b3576125b2613573565b5b6020026020010181905250808060010191505061235b565b5082828296509650965050505050909192565b6000600460008373ffffffffffffffffffffffffffffffffffffffff1673ffffffffffffffffffffffffffffffffffffffff16815260200190815260200160002060003373ffffffffffffffffffffffffffffffffffffffff1673ffffffffffffffffffffffffffffffffffffffff16815260200190815260200160002060009054906101000a900460ff169050919050565b606081600360008273ffffffffffffffffffffffffffffffffffffffff1673ffffffffffffffffffffffffffffffffffffffff16815260200190815260200160002060003373ffffffffffffffffffffffffffffffffffffffff1673ffffffffffffffffffffffffffffffffffffffff16815260200190815260200160002060009054906101000a900460ff1661273d576040517f08c379a000000000000000000000000000000000000000000000000000000000815260040161273490613d5d565b60405180910390fd5b612746336121c9565b612785576040517f08c379a000000000000000000000000000000000000000000000000000000000815260040161277c90613dc9565b60405180910390fd5b6000808473ffffffffffffffffffffffffffffffffffffffff1673ffffffffffffffffffffffffffffffffffffffff16815260200190815260200160002080546127ce90613634565b80601f01602080910402602001604051908101604052809291908181526020018280546127fa90613634565b80156128475780601f1061281c57610100808354040283529160200191612847565b820191906000526020600020905b81548152906001019060200180831161282a57829003601f168201915b5050505050915050919050565b82600360008273ffffffffffffffffffffffffffffffffffffffff1673ffffffffffffffffffffffffffffffffffffffff16815260200190815260200160002060003373ffffffffffffffffffffffffffffffffffffffff1673ffffffffffffffffffffffffffffffffffffffff16815260200190815260200160002060009054906101000a900460ff1661291e576040517f08c379a000000000000000000000000000000000000000000000000000000000815260040161291590613d5d565b60405180910390fd5b612927336121c9565b612966576040517f08c379a000000000000000000000000000000000000000000000000000000000815260040161295d90613dc9565b60405180910390fd5b6000600260008673ffffffffffffffffffffffffffffffffffffffff1673ffffffffffffffffffffffffffffffffffffffff16815260200190815260200160002080549050036129eb576040517f08c379a00000000000000000000000000000000000000000000000000000000081526004016129e290613e35565b60405180910390fd5b6001836040516129fb9190613bb6565b908152602001604051809103902060009054906101000a900460ff1615612a57576040517f08c379a0000000000000000000000000000000000000000000000000000000008152600401612a4e90613c19565b60405180910390fd5b600060016000808773ffffffffffffffffffffffffffffffffffffffff1673ffffffffffffffffffffffffffffffffffffffff168152602001908152602001600020604051612aa69190613ed8565b908152602001604051809103902060006101000a81548160ff021916908315150217905550826000808673ffffffffffffffffffffffffffffffffffffffff1673ffffffffffffffffffffffffffffffffffffffff1681526020019081526020016000209081612b16919061393e565b5060018084604051612b289190613bb6565b908152602001604051809103902060006101000a81548160ff021916908315150217905550600260008573ffffffffffffffffffffffffffffffffffffffff1673ffffffffffffffffffffffffffffffffffffffff16815260200190815260200160002060405180606001604052803373ffffffffffffffffffffffffffffffffffffffff16815260200142815260200184815250908060018154018082558091505060019003906000526020600020906003020160009091909190915060008201518160000160006101000a81548173ffffffffffffffffffffffffffffffffffffffff021916908373ffffffffffffffffffffffffffffffffffffffff160217905550602082015181600101556040820151816002019081612c4c919061393e565b5050503373ffffffffffffffffffffffffffffffffffffffff168473ffffffffffffffffffffffffffffffffffffffff167f0896ac034d981a00bcd360151de397bd1fc60c1d5d92dc2ca9db781bc173045760405160405180910390a350505050565b508054612cbb90613634565b6000825580601f10612ccd5750612cec565b601f016020900490600052602060002090810190612ceb9190612cef565b5b50565b5b80821115612d08576000816000905550600101612cf0565b5090565b6000604051905090565b600080fd5b600080fd5b600073ffffffffffffffffffffffffffffffffffffffff82169050919050565b6000612d4b82612d20565b9050919050565b612d5b81612d40565b8114612d6657600080fd5b50565b600081359050612d7881612d52565b92915050565b600060208284031215612d9457612d93612d16565b5b6000612da284828501612d69565b91505092915050565b600081519050919050565b600082825260208201905092915050565b60005b83811015612de5578082015181840152602081019050612dca565b60008484015250505050565b6000601f19601f8301169050919050565b6000612e0d82612dab565b612e178185612db6565b9350612e27818560208601612dc7565b612e3081612df1565b840191505092915050565b60006020820190508181036000830152612e558184612e02565b905092915050565b600080fd5b600080fd5b7f4e487b7100000000000000000000000000000000000000000000000000000000600052604160045260246000fd5b612e9f82612df1565b810181811067ffffffffffffffff82111715612ebe57612ebd612e67565b5b80604052505050565b6000612ed1612d0c565b9050612edd8282612e96565b919050565b600067ffffffffffffffff821115612efd57612efc612e67565b5b612f0682612df1565b9050602081019050919050565b82818337600083830152505050565b6000612f35612f3084612ee2565b612ec7565b905082815260208101848484011115612f5157612f50612e62565b5b612f5c848285612f13565b509392505050565b600082601f830112612f7957612f78612e5d565b5b8135612f89848260208601612f22565b91505092915050565b600060208284031215612fa857612fa7612d16565b5b600082013567ffffffffffffffff811115612fc657612fc5612d1b565b5b612fd284828501612f64565b91505092915050565b60008060408385031215612ff257612ff1612d16565b5b600061300085828601612d69565b925050602083013567ffffffffffffffff81111561302157613020612d1b565b5b61302d85828601612f64565b9150509250929050565b600081519050919050565b600082825260208201905092915050565b6000819050602082019050919050565b61306c81612d40565b82525050565b600061307e8383613063565b60208301905092915050565b6000602082019050919050565b60006130a282613037565b6130ac8185613042565b93506130b783613053565b8060005b838110156130e85781516130cf8882613072565b97506130da8361308a565b9250506001810190506130bb565b5085935050505092915050565b600081519050919050565b600082825260208201905092915050565b6000819050602082019050919050565b600082825260208201905092915050565b600061313d82612dab565b6131478185613121565b9350613157818560208601612dc7565b61316081612df1565b840191505092915050565b60006131778383613132565b905092915050565b6000602082019050919050565b6000613197826130f5565b6131a18185613100565b9350836020820285016131b385613111565b8060005b858110156131ef57848403895281516131d0858261316b565b94506131db8361317f565b925060208a019950506001810190506131b7565b50829750879550505050505092915050565b6000604082019050818103600083015261321b8185613097565b9050818103602083015261322f818461318c565b90509392505050565b600060208201905081810360008301526132528184613097565b905092915050565b60008115159050919050565b61326f8161325a565b82525050565b600060208201905061328a6000830184613266565b92915050565b600081519050919050565b600082825260208201905092915050565b6000819050602082019050919050565b6000819050919050565b6132cf816132bc565b82525050565b60006132e183836132c6565b60208301905092915050565b6000602082019050919050565b600061330582613290565b61330f818561329b565b935061331a836132ac565b8060005b8381101561334b57815161333288826132d5565b975061333d836132ed565b92505060018101905061331e565b5085935050505092915050565b600060608201905081810360008301526133728186613097565b9050818103602083015261338681856132fa565b9050818103604083015261339a818461318c565b9050949350505050565b6000806000606084860312156133bd576133bc612d16565b5b60006133cb86828701612d69565b935050602084013567ffffffffffffffff8111156133ec576133eb612d1b565b5b6133f886828701612f64565b925050604084013567ffffffffffffffff81111561341957613418612d1b565b5b61342586828701612f64565b9150509250925092565b7f496e76616c696420726571756573746572000000000000000000000000000000600082015250565b6000613465601183612db6565b91506134708261342f565b602082019050919050565b6000602082019050818103600083015261349481613458565b9050919050565b7f41636365737320616c7265616479206772616e74656400000000000000000000600082015250565b60006134d1601683612db6565b91506134dc8261349b565b602082019050919050565b60006020820190508181036000830152613500816134c4565b9050919050565b7f4e6f20616363657373207265717565737420666f756e64000000000000000000600082015250565b600061353d601783612db6565b915061354882613507565b602082019050919050565b6000602082019050818103600083015261356c81613530565b9050919050565b7f4e487b7100000000000000000000000000000000000000000000000000000000600052603260045260246000fd5b7f4e487b7100000000000000000000000000000000000000000000000000000000600052601160045260246000fd5b60006135dc826132bc565b91506135e7836132bc565b92508282039050818111156135ff576135fe6135a2565b5b92915050565b7f4e487b7100000000000000000000000000000000000000000000000000000000600052602260045260246000fd5b6000600282049050600182168061364c57607f821691505b60208210810361365f5761365e613605565b5b50919050565b60008154905061367481613634565b9050919050565b60008190508160005260206000209050919050565b60006020601f8301049050919050565b600082821b905092915050565b6000600883026136dd7fffffffffffffffffffffffffffffffffffffffffffffffffffffffffffffffff826136a0565b6136e786836136a0565b95508019841693508086168417925050509392505050565b6000819050919050565b600061372461371f61371a846132bc565b6136ff565b6132bc565b9050919050565b6000819050919050565b61373e83613709565b61375261374a8261372b565b8484546136ad565b825550505050565b600090565b61376761375a565b613772818484613735565b505050565b5b818110156137965761378b60008261375f565b600181019050613778565b5050565b601f8211156137db576137ac8161367b565b6137b584613690565b810160208510156137c4578190505b6137d86137d085613690565b830182613777565b50505b505050565b600082821c905092915050565b60006137fe600019846008026137e0565b1980831691505092915050565b600061381783836137ed565b9150826002028217905092915050565b81810361383557505061390d565b61383e82613665565b67ffffffffffffffff81111561385757613856612e67565b5b6138618254613634565b61386c82828561379a565b6000601f83116001811461389b5760008415613889578287015490505b613893858261380b565b865550613906565b601f1984166138a98761367b565b96506138b48661367b565b60005b828110156138dc578489015482556001820191506001850194506020810190506138b7565b868310156138f957848901546138f5601f8916826137ed565b8355505b6001600288020188555050505b5050505050505b565b7f4e487b7100000000000000000000000000000000000000000000000000000000600052603160045260246000fd5b61394782612dab565b67ffffffffffffffff8111156139605761395f612e67565b5b61396a8254613634565b61397582828561379a565b600060209050601f8311600181146139a85760008415613996578287015190505b6139a0858261380b565b865550613a08565b601f1984166139b68661367b565b60005b828110156139de578489015182556001820191506020850194506020810190506139b9565b868310156139fb57848901516139f7601f8916826137ed565b8355505b6001600288020188555050505b505050505050565b7f43616e6e6f7420726571756573742061636365737320746f20796f7572206f7760008201527f6e207265636f7264000000000000000000000000000000000000000000000000602082015250565b6000613a6c602883612db6565b9150613a7782613a10565b604082019050919050565b60006020820190508181036000830152613a9b81613a5f565b9050919050565b7f41636365737320616c7265616479207265717565737465640000000000000000600082015250565b6000613ad8601883612db6565b9150613ae382613aa2565b602082019050919050565b60006020820190508181036000830152613b0781613acb565b9050919050565b7f4f776e657220616c7265616479206861732061207265636f7264000000000000600082015250565b6000613b44601a83612db6565b9150613b4f82613b0e565b602082019050919050565b60006020820190508181036000830152613b7381613b37565b9050919050565b600081905092915050565b6000613b9082612dab565b613b9a8185613b7a565b9350613baa818560208601612dc7565b80840191505092915050565b6000613bc28284613b85565b915081905092915050565b7f49504653206861736820616c7265616479207573656400000000000000000000600082015250565b6000613c03601683612db6565b9150613c0e82613bcd565b602082019050919050565b60006020820190508181036000830152613c3281613bf6565b9050919050565b7f496e76616c696420757365722061646472657373000000000000000000000000600082015250565b6000613c6f601483612db6565b9150613c7a82613c39565b602082019050919050565b60006020820190508181036000830152613c9e81613c62565b9050919050565b7f5573657220646f6573206e6f7420686176652061636365737300000000000000600082015250565b6000613cdb601983612db6565b9150613ce682613ca5565b602082019050919050565b60006020820190508181036000830152613d0a81613cce565b9050919050565b7f4163636573732064656e69656400000000000000000000000000000000000000600082015250565b6000613d47600d83612db6565b9150613d5282613d11565b602082019050919050565b60006020820190508181036000830152613d7681613d3a565b9050919050565b7f44494420766572696669636174696f6e206661696c6564000000000000000000600082015250565b6000613db3601783612db6565b9150613dbe82613d7d565b602082019050919050565b60006020820190508181036000830152613de281613da6565b9050919050565b7f4f776e6572206973206e6f7420696e697469616c697a65640000000000000000600082015250565b6000613e1f601883612db6565b9150613e2a82613de9565b602082019050919050565b60006020820190508181036000830152613e4e81613e12565b9050919050565b60008154613e6281613634565b613e6c8186613b7a565b94506001821660008114613e875760018114613e9c57613ecf565b60ff1983168652811515820286019350613ecf565b613ea58561367b565b60005b83811015613ec757815481890152600182019150602081019050613ea8565b838801955050505b50505092915050565b6000613ee48284613e55565b91508190509291505056fea2646970667358221220cc1308744064667efb30d112df22cc720a66fcb45891d1b3c4296c91d67e09c564736f6c634300081c0033",
  "linkReferences": {},
  "deployedLinkReferences": {}
}