{
  "_format": "hh-sol-artifact-1",
  "contractName": "HealthRecords",
  "sourceName": "contracts/HealthRecords.sol",
  "abi": [
    {
      "anonymous": false,
      "inputs": [
        {
          "indexed": true,
          "internalType": "string",
          "name": "ownerDID",
          "type": "string"
        },
        {
          "indexed": false,
          "internalType": "string",
          "name": "requesterDID",
          "type": "string"
        }
      ],
      "name": "AccessRequestAccepted",
      "type": "event"
    },
    {
      "anonymous": false,
      "inputs": [
        {
          "indexed": true,
          "internalType": "string",
          "name": "ownerDID",
          "type": "string"
        },
        {
          "indexed": false,
          "internalType": "string",
          "name": "requesterDID",
          "type": "string"
        }
      ],
      "name": "AccessRequestRejected",
      "type": "event"
    },
    {
      "anonymous": false,
      "inputs": [
        {
          "indexed": true,
          "internalType": "string",
          "name": "ownerDID",
          "type": "string"
        },
        {
          "indexed": false,
          "internalType": "string",
          "name": "requesterDID",
          "type": "string"
        }
      ],
      "name": "AccessRequested",
      "type": "event"
    },
    {
      "anonymous": false,
      "inputs": [
        {
          "indexed": true,
          "internalType": "string",
          "name": "ownerDID",
          "type": "string"
        },
        {
          "indexed": false,
          "internalType": "string",
          "name": "userDID",
          "type": "string"
        }
      ],
      "name": "AccessRevoked",
      "type": "event"
    },
    {
      "anonymous": false,
      "inputs": [
        {
          "indexed": true,
          "internalType": "string",
          "name": "did",
          "type": "string"
        },
        {
          "indexed": false,
          "internalType": "address",
          "name": "oldAddress",
          "type": "address"
        },
        {
          "indexed": false,
          "internalType": "address",
          "name": "newAddress",
          "type": "address"
        }
      ],
      "name": "DIDUpdated",
      "type": "event"
    },
    {
      "anonymous": false,
      "inputs": [
        {
          "indexed": true,
          "internalType": "string",
          "name": "did",
          "type": "string"
        },
        {
          "indexed": true,
          "internalType": "address",
          "name": "user",
          "type": "address"
        }
      ],
      "name": "DIDVerified",
      "type": "event"
    },
    {
      "anonymous": false,
      "inputs": [
        {
          "indexed": true,
          "internalType": "string",
          "name": "ownerDID",
          "type": "string"
        },
        {
          "indexed": false,
          "internalType": "string",
          "name": "updaterDID",
          "type": "string"
        }
      ],
      "name": "HealthRecordUpdated",
      "type": "event"
    },
    {
      "inputs": [
        {
          "internalType": "string",
          "name": "requesterDID",
          "type": "string"
        }
      ],
      "name": "denyAccessRequest",
      "outputs": [],
      "stateMutability": "nonpayable",
      "type": "function"
    },
    {
      "inputs": [
        {
          "internalType": "string",
          "name": "ownerDID",
          "type": "string"
        }
      ],
      "name": "getAccessList",
      "outputs": [
        {
          "internalType": "string[]",
          "name": "",
          "type": "string[]"
        }
      ],
      "stateMutability": "view",
      "type": "function"
    },
    {
      "inputs": [
        {
          "internalType": "string",
          "name": "ownerDID",
          "type": "string"
        }
      ],
      "name": "getAccessRequests",
      "outputs": [
        {
          "internalType": "string[]",
          "name": "",
          "type": "string[]"
        },
        {
          "internalType": "string[]",
          "name": "",
          "type": "string[]"
        }
      ],
      "stateMutability": "view",
      "type": "function"
    },
    {
      "inputs": [
        {
          "internalType": "address",
          "name": "user",
          "type": "address"
        }
      ],
      "name": "getDID",
      "outputs": [
        {
          "internalType": "string",
          "name": "",
          "type": "string"
        }
      ],
      "stateMutability": "view",
      "type": "function"
    },
    {
      "inputs": [
        {
          "internalType": "string",
          "name": "ownerDID",
          "type": "string"
        }
      ],
      "name": "getHealthRecord",
      "outputs": [
        {
          "internalType": "string",
          "name": "",
          "type": "string"
        }
      ],
      "stateMutability": "view",
      "type": "function"
    },
    {
      "inputs": [
        {
          "internalType": "string",
          "name": "requesterDID",
          "type": "string"
        }
      ],
      "name": "getOwnHealthRecord",
      "outputs": [
        {
          "internalType": "string",
          "name": "",
          "type": "string"
        }
      ],
      "stateMutability": "view",
      "type": "function"
    },
    {
      "inputs": [
        {
          "internalType": "string",
          "name": "ownerDID",
          "type": "string"
        }
      ],
      "name": "getUpdates",
      "outputs": [
        {
          "internalType": "string[]",
          "name": "",
          "type": "string[]"
        },
        {
          "internalType": "uint256[]",
          "name": "",
          "type": "uint256[]"
        },
        {
          "internalType": "string[]",
          "name": "",
          "type": "string[]"
        }
      ],
      "stateMutability": "view",
      "type": "function"
    },
    {
      "inputs": [
        {
          "internalType": "string",
          "name": "requesterDID",
          "type": "string"
        }
      ],
      "name": "grantAccess",
      "outputs": [],
      "stateMutability": "nonpayable",
      "type": "function"
    },
    {
      "inputs": [
        {
          "internalType": "string",
          "name": "ownerDID",
          "type": "string"
        },
        {
          "internalType": "string",
          "name": "requesterDID",
          "type": "string"
        }
      ],
      "name": "hasAccess",
      "outputs": [
        {
          "internalType": "bool",
          "name": "",
          "type": "bool"
        }
      ],
      "stateMutability": "view",
      "type": "function"
    },
    {
      "inputs": [
        {
          "internalType": "string",
          "name": "ownerDID",
          "type": "string"
        },
        {
          "internalType": "string",
          "name": "requesterDID",
          "type": "string"
        }
      ],
      "name": "hasRequestedAccess",
      "outputs": [
        {
          "internalType": "bool",
          "name": "",
          "type": "bool"
        }
      ],
      "stateMutability": "view",
      "type": "function"
    },
    {
      "inputs": [
        {
          "internalType": "string",
          "name": "ownerDID",
          "type": "string"
        },
        {
          "internalType": "string",
          "name": "ipfsHash",
          "type": "string"
        }
      ],
      "name": "initializePatientRecord",
      "outputs": [],
      "stateMutability": "nonpayable",
      "type": "function"
    },
    {
      "inputs": [
        {
          "internalType": "string",
          "name": "ownerDID",
          "type": "string"
        },
        {
          "internalType": "string",
          "name": "note",
          "type": "string"
        }
      ],
      "name": "requestAccess",
      "outputs": [],
      "stateMutability": "nonpayable",
      "type": "function"
    },
    {
      "inputs": [
        {
          "internalType": "string",
          "name": "userDID",
          "type": "string"
        }
      ],
      "name": "revokeAccess",
      "outputs": [],
      "stateMutability": "nonpayable",
      "type": "function"
    },
    {
      "inputs": [
        {
          "internalType": "string",
          "name": "did",
          "type": "string"
        },
        {
          "internalType": "string",
          "name": "role",
          "type": "string"
        }
      ],
      "name": "setDID",
      "outputs": [],
      "stateMutability": "nonpayable",
      "type": "function"
    },
    {
      "inputs": [
        {
          "internalType": "string",
          "name": "did",
          "type": "string"
        },
        {
          "internalType": "address",
          "name": "newAddress",
          "type": "address"
        }
      ],
      "name": "updateDIDAddress",
      "outputs": [],
      "stateMutability": "nonpayable",
      "type": "function"
    },
    {
      "inputs": [
        {
          "internalType": "string",
          "name": "ownerDID",
          "type": "string"
        },
        {
          "internalType": "string",
          "name": "newIpfsHash",
          "type": "string"
        },
        {
          "internalType": "string",
          "name": "description",
          "type": "string"
        }
      ],
      "name": "updatePatientRecord",
      "outputs": [],
      "stateMutability": "nonpayable",
      "type": "function"
    },
    {
      "inputs": [
        {
          "internalType": "address",
          "name": "user",
          "type": "address"
        }
      ],
      "name": "verifyDID",
      "outputs": [
        {
          "internalType": "bool",
          "name": "",
          "type": "bool"
        }
      ],
      "stateMutability": "view",
      "type": "function"
    }
  ],
  "bytecode": "0x6080604052348015600f57600080fd5b506144368061001f6000396000f3fe608060405234801561001057600080fd5b506004361061010b5760003560e01c8063c7882134116100a2578063d9454fb911610071578063d9454fb9146102ee578063db117f0e1461030a578063df79b7ba1461033b578063f64e30b014610357578063fb310c59146103875761010b565b8063c788213414610240578063ca18cbfb14610272578063d04a047d146102a2578063d655c0d3146102be5761010b565b806378fdeaae116100de57806378fdeaae1461019457806380d85c66146101c457806382e3e7ef146101e057806395d5a3f0146102105761010b565b806316157f6c14610110578063207366901461012c57806322c7cbd914610148578063435cf7f314610164575b600080fd5b61012a60048036038101906101259190612f46565b6103a3565b005b61014660048036038101906101419190612f46565b610798565b005b610162600480360381019061015d919061301c565b610b35565b005b61017e60048036038101906101799190612f46565b610daf565b60405161018b9190613093565b60405180910390f35b6101ae60048036038101906101a99190612f46565b610e01565b6040516101bb9190613093565b60405180910390f35b6101de60048036038101906101d991906130ae565b610e53565b005b6101fa60048036038101906101f591906130ae565b6113e7565b6040516102079190613176565b60405180910390f35b61022a60048036038101906102259190613198565b6115a6565b6040516102379190613093565b60405180910390f35b61025a600480360381019061025591906130ae565b6115fd565b60405161026993929190613399565b60405180910390f35b61028c600480360381019061028791906130ae565b611977565b6040516102999190613176565b60405180910390f35b6102bc60048036038101906102b791906133e5565b611a27565b005b6102d860048036038101906102d391906130ae565b611e4a565b6040516102e5919061348c565b60405180910390f35b610308600480360381019061030391906130ae565b611f41565b005b610324600480360381019061031f91906130ae565b612384565b6040516103329291906134ae565b60405180910390f35b61035560048036038101906103509190612f46565b612648565b005b610371600480360381019061036c9190613198565b61294d565b60405161037e9190613176565b60405180910390f35b6103a1600480360381019061039c91906130ae565b612a1e565b005b6000600160003373ffffffffffffffffffffffffffffffffffffffff1673ffffffffffffffffffffffffffffffffffffffff16815260200190815260200160002080546103ef90613514565b80601f016020809104026020016040519081016040528092919081815260200182805461041b90613514565b80156104685780601f1061043d57610100808354040283529160200191610468565b820191906000526020600020905b81548152906001019060200180831161044b57829003601f168201915b5050505050905060008160405161047f9190613581565b908152602001604051809103902060009054906101000a900473ffffffffffffffffffffffffffffffffffffffff1673ffffffffffffffffffffffffffffffffffffffff166000846040516104d49190613581565b908152602001604051809103902060009054906101000a900473ffffffffffffffffffffffffffffffffffffffff1673ffffffffffffffffffffffffffffffffffffffff1603610559576040517f08c379a00000000000000000000000000000000000000000000000000000000081526004016105509061360a565b60405180910390fd5b6006836040516105699190613581565b9081526020016040518091039020816040516105859190613581565b908152602001604051809103902060009054906101000a900460ff16156105e1576040517f08c379a00000000000000000000000000000000000000000000000000000000081526004016105d890613676565b60405180910390fd5b6007836040516105f19190613581565b90815260200160405180910390208160405161060d9190613581565b908152602001604051809103902060009054906101000a900460ff1615610669576040517f08c379a0000000000000000000000000000000000000000000000000000000008152600401610660906136e2565b60405180910390fd5b6009836040516106799190613581565b9081526020016040518091039020604051806040016040528083815260200184815250908060018154018082558091505060019003906000526020600020906002020160009091909190915060008201518160000190816106da91906138ae565b5060208201518160010190816106f091906138ae565b50505060016007846040516107059190613581565b9081526020016040518091039020826040516107219190613581565b908152602001604051809103902060006101000a81548160ff021916908315150217905550826040516107549190613581565b60405180910390207f882700570d33d67e582af1413a4cc9838503d9b47ef0614ce830ef23510ceba88260405161078b9190613176565b60405180910390a2505050565b60008251116107dc576040517f08c379a00000000000000000000000000000000000000000000000000000000081526004016107d3906139cc565b60405180910390fd5b6000815111610820576040517f08c379a000000000000000000000000000000000000000000000000000000000815260040161081790613a38565b60405180910390fd5b600073ffffffffffffffffffffffffffffffffffffffff166000836040516108489190613581565b908152602001604051809103902060009054906101000a900473ffffffffffffffffffffffffffffffffffffffff1673ffffffffffffffffffffffffffffffffffffffff16146108cd576040517f08c379a00000000000000000000000000000000000000000000000000000000081526004016108c490613aa4565b60405180910390fd5b6000600160003373ffffffffffffffffffffffffffffffffffffffff1673ffffffffffffffffffffffffffffffffffffffff168152602001908152602001600020805461091990613514565b80601f016020809104026020016040519081016040528092919081815260200182805461094590613514565b80156109925780601f1061096757610100808354040283529160200191610992565b820191906000526020600020905b81548152906001019060200180831161097557829003601f168201915b50505050509050600081511115610b3057600080826040516109b49190613581565b908152602001604051809103902060006101000a81548173ffffffffffffffffffffffffffffffffffffffff021916908373ffffffffffffffffffffffffffffffffffffffff16021790555082600160003373ffffffffffffffffffffffffffffffffffffffff1673ffffffffffffffffffffffffffffffffffffffff1681526020019081526020016000209081610a4c91906138ae565b5033600084604051610a5e9190613581565b908152602001604051809103902060006101000a81548173ffffffffffffffffffffffffffffffffffffffff021916908373ffffffffffffffffffffffffffffffffffffffff16021790555081600284604051610abb9190613581565b90815260200160405180910390209081610ad591906138ae565b503373ffffffffffffffffffffffffffffffffffffffff1683604051610afb9190613581565b60405180910390207f4da037260679d5faaa07e50c000b50d3980ab1a3d8d751c858bafa73d1d2b85460405160405180910390a35b505050565b3373ffffffffffffffffffffffffffffffffffffffff16600083604051610b5c9190613581565b908152602001604051809103902060009054906101000a900473ffffffffffffffffffffffffffffffffffffffff1673ffffffffffffffffffffffffffffffffffffffff1614610be1576040517f08c379a0000000000000000000000000000000000000000000000000000000008152600401610bd890613b10565b60405180910390fd5b600073ffffffffffffffffffffffffffffffffffffffff168173ffffffffffffffffffffffffffffffffffffffff1603610c50576040517f08c379a0000000000000000000000000000000000000000000000000000000008152600401610c4790613b7c565b60405180910390fd5b600033905081600084604051610c669190613581565b908152602001604051809103902060006101000a81548173ffffffffffffffffffffffffffffffffffffffff021916908373ffffffffffffffffffffffffffffffffffffffff16021790555082600160008473ffffffffffffffffffffffffffffffffffffffff1673ffffffffffffffffffffffffffffffffffffffff1681526020019081526020016000209081610cfe91906138ae565b5060405180602001604052806000815250600160008373ffffffffffffffffffffffffffffffffffffffff1673ffffffffffffffffffffffffffffffffffffffff1681526020019081526020016000209081610d5a91906138ae565b5082604051610d699190613581565b60405180910390207f3e0b3304405ff6baf04f1392688fac90b51c8cd9eeb4f0d68a9b8d703e0167148284604051610da2929190613bab565b60405180910390a2505050565b6000600683604051610dc19190613581565b908152602001604051809103902082604051610ddd9190613581565b908152602001604051809103902060009054906101000a900460ff16905092915050565b6000600783604051610e139190613581565b908152602001604051809103902082604051610e2f9190613581565b908152602001604051809103902060009054906101000a900460ff16905092915050565b6000600160003373ffffffffffffffffffffffffffffffffffffffff1673ffffffffffffffffffffffffffffffffffffffff1681526020019081526020016000208054610e9f90613514565b80601f0160208091040260200160405190810160405280929190818152602001828054610ecb90613514565b8015610f185780601f10610eed57610100808354040283529160200191610f18565b820191906000526020600020905b815481529060010190602001808311610efb57829003601f168201915b50505050509050600073ffffffffffffffffffffffffffffffffffffffff16600083604051610f479190613581565b908152602001604051809103902060009054906101000a900473ffffffffffffffffffffffffffffffffffffffff1673ffffffffffffffffffffffffffffffffffffffff1603610fcc576040517f08c379a0000000000000000000000000000000000000000000000000000000008152600401610fc390613c20565b60405180910390fd5b600681604051610fdc9190613581565b908152602001604051809103902082604051610ff89190613581565b908152602001604051809103902060009054906101000a900460ff1615611054576040517f08c379a000000000000000000000000000000000000000000000000000000000815260040161104b90613676565b60405180910390fd5b6007816040516110649190613581565b9081526020016040518091039020826040516110809190613581565b908152602001604051809103902060009054906101000a900460ff166110db576040517f08c379a00000000000000000000000000000000000000000000000000000000081526004016110d290613c8c565b60405180910390fd5b60016006826040516110ed9190613581565b9081526020016040518091039020836040516111099190613581565b908152602001604051809103902060006101000a81548160ff02191690831515021790555060088160405161113e9190613581565b90815260200160405180910390208290806001815401808255809150506001900390600052602060002001600090919091909150908161117e91906138ae565b5060006009826040516111919190613581565b908152602001604051809103902080549050905060005b818110156113415783805190602001206009846040516111c89190613581565b908152602001604051809103902082815481106111e8576111e7613cac565b5b90600052602060002090600202016000016040516112069190613d7e565b604051809103902003611334576009836040516112239190613581565b908152602001604051809103902060018361123e9190613dc4565b8154811061124f5761124e613cac565b5b906000526020600020906002020160098460405161126d9190613581565b9081526020016040518091039020828154811061128d5761128c613cac565b5b9060005260206000209060020201600082018160000190816112af9190613e0e565b50600182018160010190816112c49190613e0e565b509050506009836040516112d89190613581565b90815260200160405180910390208054806112f6576112f5613ef6565b5b60019003818190600052602060002090600202016000808201600061131b9190612d8f565b60018201600061132b9190612d8f565b50509055611341565b80806001019150506111a8565b5060006007836040516113549190613581565b9081526020016040518091039020846040516113709190613581565b908152602001604051809103902060006101000a81548160ff021916908315150217905550816040516113a39190613581565b60405180910390207f0802a3d70135c037d53454d342558685e0aa58ff85ab69a83ac75e3ac603010c846040516113da9190613176565b60405180910390a2505050565b6060816006816040516113fa9190613581565b9081526020016040518091039020600160003373ffffffffffffffffffffffffffffffffffffffff1673ffffffffffffffffffffffffffffffffffffffff1681526020019081526020016000206040516114549190613fa8565b908152602001604051809103902060009054906101000a900460ff166114af576040517f08c379a00000000000000000000000000000000000000000000000000000000081526004016114a69061400b565b60405180910390fd5b6114b8336115a6565b6114f7576040517f08c379a00000000000000000000000000000000000000000000000000000000081526004016114ee90614077565b60405180910390fd5b6003836040516115079190613581565b9081526020016040518091039020805461152090613514565b80601f016020809104026020016040519081016040528092919081815260200182805461154c90613514565b80156115995780601f1061156e57610100808354040283529160200191611599565b820191906000526020600020905b81548152906001019060200180831161157c57829003601f168201915b5050505050915050919050565b600080600160008473ffffffffffffffffffffffffffffffffffffffff1673ffffffffffffffffffffffffffffffffffffffff16815260200190815260200160002080546115f390613514565b9050119050919050565b606080606060006005856040516116149190613581565b908152602001604051809103902080549050905060008167ffffffffffffffff81111561164457611643612e1b565b5b60405190808252806020026020018201604052801561167757816020015b60608152602001906001900390816116625790505b50905060008267ffffffffffffffff81111561169657611695612e1b565b5b6040519080825280602002602001820160405280156116c45781602001602082028036833780820191505090505b50905060008367ffffffffffffffff8111156116e3576116e2612e1b565b5b60405190808252806020026020018201604052801561171657816020015b60608152602001906001900390816117015790505b50905060005b84811015611962576005896040516117349190613581565b9081526020016040518091039020818154811061175457611753613cac565b5b9060005260206000209060030201600001805461177090613514565b80601f016020809104026020016040519081016040528092919081815260200182805461179c90613514565b80156117e95780601f106117be576101008083540402835291602001916117e9565b820191906000526020600020905b8154815290600101906020018083116117cc57829003601f168201915b505050505084828151811061180157611800613cac565b5b602002602001018190525060058960405161181c9190613581565b9081526020016040518091039020818154811061183c5761183b613cac565b5b90600052602060002090600302016001015483828151811061186157611860613cac565b5b60200260200101818152505060058960405161187d9190613581565b9081526020016040518091039020818154811061189d5761189c613cac565b5b906000526020600020906003020160020180546118b990613514565b80601f01602080910402602001604051908101604052809291908181526020018280546118e590613514565b80156119325780601f1061190757610100808354040283529160200191611932565b820191906000526020600020905b81548152906001019060200180831161191557829003601f168201915b505050505082828151811061194a57611949613cac565b5b6020026020010181905250808060010191505061171c565b50828282965096509650505050509193909250565b60606003826040516119899190613581565b908152602001604051809103902080546119a290613514565b80601f01602080910402602001604051908101604052809291908181526020018280546119ce90613514565b8015611a1b5780601f106119f057610100808354040283529160200191611a1b565b820191906000526020600020905b8154815290600101906020018083116119fe57829003601f168201915b50505050509050919050565b82600681604051611a389190613581565b9081526020016040518091039020600160003373ffffffffffffffffffffffffffffffffffffffff1673ffffffffffffffffffffffffffffffffffffffff168152602001908152602001600020604051611a929190613fa8565b908152602001604051809103902060009054906101000a900460ff16611aed576040517f08c379a0000000000000000000000000000000000000000000000000000000008152600401611ae49061400b565b60405180910390fd5b611af6336115a6565b611b35576040517f08c379a0000000000000000000000000000000000000000000000000000000008152600401611b2c90614077565b60405180910390fd5b600483604051611b459190613581565b908152602001604051809103902060009054906101000a900460ff1615611ba1576040517f08c379a0000000000000000000000000000000000000000000000000000000008152600401611b98906140e3565b60405180910390fd5b60006004600386604051611bb59190613581565b9081526020016040518091039020604051611bd09190613fa8565b908152602001604051809103902060006101000a81548160ff02191690831515021790555082600385604051611c069190613581565b90815260200160405180910390209081611c2091906138ae565b506001600484604051611c339190613581565b908152602001604051809103902060006101000a81548160ff021916908315150217905550600584604051611c689190613581565b90815260200160405180910390206040518060600160405280600160003373ffffffffffffffffffffffffffffffffffffffff1673ffffffffffffffffffffffffffffffffffffffff1681526020019081526020016000208054611ccb90613514565b80601f0160208091040260200160405190810160405280929190818152602001828054611cf790613514565b8015611d445780601f10611d1957610100808354040283529160200191611d44565b820191906000526020600020905b815481529060010190602001808311611d2757829003601f168201915b505050505081526020014281526020018481525090806001815401808255809150506001900390600052602060002090600302016000909190919091506000820151816000019081611d9691906138ae565b50602082015181600101556040820151816002019081611db691906138ae565b50505083604051611dc79190613581565b60405180910390207f6da6eb3464e495ff017f13c90721ae40a1f2b304d56bbdd5179383c4c11197b9600160003373ffffffffffffffffffffffffffffffffffffffff1673ffffffffffffffffffffffffffffffffffffffff168152602001908152602001600020604051611e3c9190614187565b60405180910390a250505050565b6060600882604051611e5c9190613581565b9081526020016040518091039020805480602002602001604051908101604052809291908181526020016000905b82821015611f36578382906000526020600020018054611ea990613514565b80601f0160208091040260200160405190810160405280929190818152602001828054611ed590613514565b8015611f225780601f10611ef757610100808354040283529160200191611f22565b820191906000526020600020905b815481529060010190602001808311611f0557829003601f168201915b505050505081526020019060010190611e8a565b505050509050919050565b6000600160003373ffffffffffffffffffffffffffffffffffffffff1673ffffffffffffffffffffffffffffffffffffffff1681526020019081526020016000208054611f8d90613514565b80601f0160208091040260200160405190810160405280929190818152602001828054611fb990613514565b80156120065780601f10611fdb57610100808354040283529160200191612006565b820191906000526020600020905b815481529060010190602001808311611fe957829003601f168201915b5050505050905060068160405161201d9190613581565b9081526020016040518091039020826040516120399190613581565b908152602001604051809103902060009054906101000a900460ff1615612095576040517f08c379a000000000000000000000000000000000000000000000000000000000815260040161208c90613676565b60405180910390fd5b6007816040516120a59190613581565b9081526020016040518091039020826040516120c19190613581565b908152602001604051809103902060009054906101000a900460ff1661211c576040517f08c379a000000000000000000000000000000000000000000000000000000000815260040161211390613c8c565b60405180910390fd5b600060098260405161212e9190613581565b908152602001604051809103902080549050905060005b818110156122de5783805190602001206009846040516121659190613581565b9081526020016040518091039020828154811061218557612184613cac565b5b90600052602060002090600202016000016040516121a39190613d7e565b6040518091039020036122d1576009836040516121c09190613581565b90815260200160405180910390206001836121db9190613dc4565b815481106121ec576121eb613cac565b5b906000526020600020906002020160098460405161220a9190613581565b9081526020016040518091039020828154811061222a57612229613cac565b5b90600052602060002090600202016000820181600001908161224c9190613e0e565b50600182018160010190816122619190613e0e565b509050506009836040516122759190613581565b908152602001604051809103902080548061229357612292613ef6565b5b6001900381819060005260206000209060020201600080820160006122b89190612d8f565b6001820160006122c89190612d8f565b505090556122de565b8080600101915050612145565b5060006007836040516122f19190613581565b90815260200160405180910390208460405161230d9190613581565b908152602001604051809103902060006101000a81548160ff021916908315150217905550816040516123409190613581565b60405180910390207f01eda78b623e4efc2087925ce58904f8b7b9ace91e90838aa2487a16d671ea73846040516123779190613176565b60405180910390a2505050565b60608060006009846040516123999190613581565b908152602001604051809103902080549050905060008167ffffffffffffffff8111156123c9576123c8612e1b565b5b6040519080825280602002602001820160405280156123fc57816020015b60608152602001906001900390816123e75790505b50905060008267ffffffffffffffff81111561241b5761241a612e1b565b5b60405190808252806020026020018201604052801561244e57816020015b60608152602001906001900390816124395790505b50905060005b838110156126395760098760405161246c9190613581565b9081526020016040518091039020818154811061248c5761248b613cac565b5b906000526020600020906002020160000180546124a890613514565b80601f01602080910402602001604051908101604052809291908181526020018280546124d490613514565b80156125215780601f106124f657610100808354040283529160200191612521565b820191906000526020600020905b81548152906001019060200180831161250457829003601f168201915b505050505083828151811061253957612538613cac565b5b60200260200101819052506009876040516125549190613581565b9081526020016040518091039020818154811061257457612573613cac565b5b9060005260206000209060020201600101805461259090613514565b80601f01602080910402602001604051908101604052809291908181526020018280546125bc90613514565b80156126095780601f106125de57610100808354040283529160200191612609565b820191906000526020600020905b8154815290600101906020018083116125ec57829003601f168201915b505050505082828151811061262157612620613cac565b5b60200260200101819052508080600101915050612454565b50818194509450505050915091565b600060058360405161265a9190613581565b908152602001604051809103902080549050146126ac576040517f08c379a00000000000000000000000000000000000000000000000000000000081526004016126a3906141f5565b60405180910390fd5b6004816040516126bc9190613581565b908152602001604051809103902060009054906101000a900460ff1615612718576040517f08c379a000000000000000000000000000000000000000000000000000000000815260040161270f906140e3565b60405180910390fd5b3373ffffffffffffffffffffffffffffffffffffffff1660008360405161273f9190613581565b908152602001604051809103902060009054906101000a900473ffffffffffffffffffffffffffffffffffffffff1673ffffffffffffffffffffffffffffffffffffffff16146127c4576040517f08c379a00000000000000000000000000000000000000000000000000000000081526004016127bb90614261565b60405180910390fd5b60016006836040516127d69190613581565b9081526020016040518091039020836040516127f29190613581565b908152602001604051809103902060006101000a81548160ff021916908315150217905550806003836040516128289190613581565b9081526020016040518091039020908161284291906138ae565b5060016004826040516128559190613581565b908152602001604051809103902060006101000a81548160ff02191690831515021790555060058260405161288a9190613581565b908152602001604051809103902060405180606001604052808481526020014281526020016040518060400160405280601981526020017f496e697469616c697a6564206865616c7468207265636f7264000000000000008152508152509080600181540180825580915050600190039060005260206000209060030201600090919091909150600082015181600001908161292691906138ae565b5060208201518160010155604082015181600201908161294691906138ae565b5050505050565b6060600160008373ffffffffffffffffffffffffffffffffffffffff1673ffffffffffffffffffffffffffffffffffffffff168152602001908152602001600020805461299990613514565b80601f01602080910402602001604051908101604052809291908181526020018280546129c590613514565b8015612a125780601f106129e757610100808354040283529160200191612a12565b820191906000526020600020905b8154815290600101906020018083116129f557829003601f168201915b50505050509050919050565b6000600160003373ffffffffffffffffffffffffffffffffffffffff1673ffffffffffffffffffffffffffffffffffffffff1681526020019081526020016000208054612a6a90613514565b80601f0160208091040260200160405190810160405280929190818152602001828054612a9690613514565b8015612ae35780601f10612ab857610100808354040283529160200191612ae3565b820191906000526020600020905b815481529060010190602001808311612ac657829003601f168201915b50505050509050600681604051612afa9190613581565b908152602001604051809103902082604051612b169190613581565b908152602001604051809103902060009054906101000a900460ff16612b71576040517f08c379a0000000000000000000000000000000000000000000000000000000008152600401612b68906142cd565b60405180910390fd5b6000600682604051612b839190613581565b908152602001604051809103902083604051612b9f9190613581565b908152602001604051809103902060006101000a81548160ff0219169083151502179055506000600882604051612bd69190613581565b908152602001604051809103902080549050905060005b81811015612d3c578380519060200120600884604051612c0d9190613581565b90815260200160405180910390208281548110612c2d57612c2c613cac565b5b90600052602060002001604051612c449190613d7e565b604051809103902003612d2f57600883604051612c619190613581565b9081526020016040518091039020600183612c7c9190613dc4565b81548110612c8d57612c8c613cac565b5b90600052602060002001600884604051612ca79190613581565b90815260200160405180910390208281548110612cc757612cc6613cac565b5b906000526020600020019081612cdd9190614318565b50600883604051612cee9190613581565b9081526020016040518091039020805480612d0c57612d0b613ef6565b5b600190038181906000526020600020016000612d289190612d8f565b9055612d3c565b8080600101915050612bed565b5081604051612d4b9190613581565b60405180910390207fd3e2d08262b3e953832b809909b3e06137ec1523f3bbf5c56c8716b235d1292384604051612d829190613176565b60405180910390a2505050565b508054612d9b90613514565b6000825580601f10612dad5750612dcc565b601f016020900490600052602060002090810190612dcb9190612dcf565b5b50565b5b80821115612de8576000816000905550600101612dd0565b5090565b6000604051905090565b600080fd5b600080fd5b600080fd5b600080fd5b6000601f19601f8301169050919050565b7f4e487b7100000000000000000000000000000000000000000000000000000000600052604160045260246000fd5b612e5382612e0a565b810181811067ffffffffffffffff82111715612e7257612e71612e1b565b5b80604052505050565b6000612e85612dec565b9050612e918282612e4a565b919050565b600067ffffffffffffffff821115612eb157612eb0612e1b565b5b612eba82612e0a565b9050602081019050919050565b82818337600083830152505050565b6000612ee9612ee484612e96565b612e7b565b905082815260208101848484011115612f0557612f04612e05565b5b612f10848285612ec7565b509392505050565b600082601f830112612f2d57612f2c612e00565b5b8135612f3d848260208601612ed6565b91505092915050565b60008060408385031215612f5d57612f5c612df6565b5b600083013567ffffffffffffffff811115612f7b57612f7a612dfb565b5b612f8785828601612f18565b925050602083013567ffffffffffffffff811115612fa857612fa7612dfb565b5b612fb485828601612f18565b9150509250929050565b600073ffffffffffffffffffffffffffffffffffffffff82169050919050565b6000612fe982612fbe565b9050919050565b612ff981612fde565b811461300457600080fd5b50565b60008135905061301681612ff0565b92915050565b6000806040838503121561303357613032612df6565b5b600083013567ffffffffffffffff81111561305157613050612dfb565b5b61305d85828601612f18565b925050602061306e85828601613007565b9150509250929050565b60008115159050919050565b61308d81613078565b82525050565b60006020820190506130a86000830184613084565b92915050565b6000602082840312156130c4576130c3612df6565b5b600082013567ffffffffffffffff8111156130e2576130e1612dfb565b5b6130ee84828501612f18565b91505092915050565b600081519050919050565b600082825260208201905092915050565b60005b83811015613131578082015181840152602081019050613116565b60008484015250505050565b6000613148826130f7565b6131528185613102565b9350613162818560208601613113565b61316b81612e0a565b840191505092915050565b60006020820190508181036000830152613190818461313d565b905092915050565b6000602082840312156131ae576131ad612df6565b5b60006131bc84828501613007565b91505092915050565b600081519050919050565b600082825260208201905092915050565b6000819050602082019050919050565b600082825260208201905092915050565b600061320d826130f7565b61321781856131f1565b9350613227818560208601613113565b61323081612e0a565b840191505092915050565b60006132478383613202565b905092915050565b6000602082019050919050565b6000613267826131c5565b61327181856131d0565b935083602082028501613283856131e1565b8060005b858110156132bf57848403895281516132a0858261323b565b94506132ab8361324f565b925060208a01995050600181019050613287565b50829750879550505050505092915050565b600081519050919050565b600082825260208201905092915050565b6000819050602082019050919050565b6000819050919050565b613310816132fd565b82525050565b60006133228383613307565b60208301905092915050565b6000602082019050919050565b6000613346826132d1565b61335081856132dc565b935061335b836132ed565b8060005b8381101561338c5781516133738882613316565b975061337e8361332e565b92505060018101905061335f565b5085935050505092915050565b600060608201905081810360008301526133b3818661325c565b905081810360208301526133c7818561333b565b905081810360408301526133db818461325c565b9050949350505050565b6000806000606084860312156133fe576133fd612df6565b5b600084013567ffffffffffffffff81111561341c5761341b612dfb565b5b61342886828701612f18565b935050602084013567ffffffffffffffff81111561344957613448612dfb565b5b61345586828701612f18565b925050604084013567ffffffffffffffff81111561347657613475612dfb565b5b61348286828701612f18565b9150509250925092565b600060208201905081810360008301526134a6818461325c565b905092915050565b600060408201905081810360008301526134c8818561325c565b905081810360208301526134dc818461325c565b90509392505050565b7f4e487b7100000000000000000000000000000000000000000000000000000000600052602260045260246000fd5b6000600282049050600182168061352c57607f821691505b60208210810361353f5761353e6134e5565b5b50919050565b600081905092915050565b600061355b826130f7565b6135658185613545565b9350613575818560208601613113565b80840191505092915050565b600061358d8284613550565b915081905092915050565b7f43616e6e6f7420726571756573742061636365737320746f20796f7572206f7760008201527f6e207265636f7264000000000000000000000000000000000000000000000000602082015250565b60006135f4602883613102565b91506135ff82613598565b604082019050919050565b60006020820190508181036000830152613623816135e7565b9050919050565b7f41636365737320616c7265616479206772616e74656400000000000000000000600082015250565b6000613660601683613102565b915061366b8261362a565b602082019050919050565b6000602082019050818103600083015261368f81613653565b9050919050565b7f41636365737320616c7265616479207265717565737465640000000000000000600082015250565b60006136cc601883613102565b91506136d782613696565b602082019050919050565b600060208201905081810360008301526136fb816136bf565b9050919050565b60008190508160005260206000209050919050565b60006020601f8301049050919050565b600082821b905092915050565b6000600883026137647fffffffffffffffffffffffffffffffffffffffffffffffffffffffffffffffff82613727565b61376e8683613727565b95508019841693508086168417925050509392505050565b6000819050919050565b60006137ab6137a66137a1846132fd565b613786565b6132fd565b9050919050565b6000819050919050565b6137c583613790565b6137d96137d1826137b2565b848454613734565b825550505050565b600090565b6137ee6137e1565b6137f98184846137bc565b505050565b5b8181101561381d576138126000826137e6565b6001810190506137ff565b5050565b601f8211156138625761383381613702565b61383c84613717565b8101602085101561384b578190505b61385f61385785613717565b8301826137fe565b50505b505050565b600082821c905092915050565b600061388560001984600802613867565b1980831691505092915050565b600061389e8383613874565b9150826002028217905092915050565b6138b7826130f7565b67ffffffffffffffff8111156138d0576138cf612e1b565b5b6138da8254613514565b6138e5828285613821565b600060209050601f8311600181146139185760008415613906578287015190505b6139108582613892565b865550613978565b601f19841661392686613702565b60005b8281101561394e57848901518255600182019150602085019450602081019050613929565b8683101561396b5784890151613967601f891682613874565b8355505b6001600288020188555050505b505050505050565b7f496e76616c696420444944000000000000000000000000000000000000000000600082015250565b60006139b6600b83613102565b91506139c182613980565b602082019050919050565b600060208201905081810360008301526139e5816139a9565b9050919050565b7f496e76616c696420726f6c650000000000000000000000000000000000000000600082015250565b6000613a22600c83613102565b9150613a2d826139ec565b602082019050919050565b60006020820190508181036000830152613a5181613a15565b9050919050565b7f44494420616c72656164792074616b656e000000000000000000000000000000600082015250565b6000613a8e601183613102565b9150613a9982613a58565b602082019050919050565b60006020820190508181036000830152613abd81613a81565b9050919050565b7f556e617574686f72697a65642044494420757064617465000000000000000000600082015250565b6000613afa601783613102565b9150613b0582613ac4565b602082019050919050565b60006020820190508181036000830152613b2981613aed565b9050919050565b7f496e76616c6964206e6577206164647265737300000000000000000000000000600082015250565b6000613b66601383613102565b9150613b7182613b30565b602082019050919050565b60006020820190508181036000830152613b9581613b59565b9050919050565b613ba581612fde565b82525050565b6000604082019050613bc06000830185613b9c565b613bcd6020830184613b9c565b9392505050565b7f496e76616c696420726571756573746572204449440000000000000000000000600082015250565b6000613c0a601583613102565b9150613c1582613bd4565b602082019050919050565b60006020820190508181036000830152613c3981613bfd565b9050919050565b7f4e6f20616363657373207265717565737420666f756e64000000000000000000600082015250565b6000613c76601783613102565b9150613c8182613c40565b602082019050919050565b60006020820190508181036000830152613ca581613c69565b9050919050565b7f4e487b7100000000000000000000000000000000000000000000000000000000600052603260045260246000fd5b600081905092915050565b60008190508160005260206000209050919050565b60008154613d0881613514565b613d128186613cdb565b94506001821660008114613d2d5760018114613d4257613d75565b60ff1983168652811515820286019350613d75565b613d4b85613ce6565b60005b83811015613d6d57815481890152600182019150602081019050613d4e565b838801955050505b50505092915050565b6000613d8a8284613cfb565b915081905092915050565b7f4e487b7100000000000000000000000000000000000000000000000000000000600052601160045260246000fd5b6000613dcf826132fd565b9150613dda836132fd565b9250828203905081811115613df257613df1613d95565b5b92915050565b600081549050613e0781613514565b9050919050565b818103613e1c575050613ef4565b613e2582613df8565b67ffffffffffffffff811115613e3e57613e3d612e1b565b5b613e488254613514565b613e53828285613821565b6000601f831160018114613e825760008415613e70578287015490505b613e7a8582613892565b865550613eed565b601f198416613e9087613702565b9650613e9b86613702565b60005b82811015613ec357848901548255600182019150600185019450602081019050613e9e565b86831015613ee05784890154613edc601f891682613874565b8355505b6001600288020188555050505b5050505050505b565b7f4e487b7100000000000000000000000000000000000000000000000000000000600052603160045260246000fd5b60008154613f3281613514565b613f3c8186613545565b94506001821660008114613f575760018114613f6c57613f9f565b60ff1983168652811515820286019350613f9f565b613f7585613702565b60005b83811015613f9757815481890152600182019150602081019050613f78565b838801955050505b50505092915050565b6000613fb48284613f25565b915081905092915050565b7f4163636573732064656e69656400000000000000000000000000000000000000600082015250565b6000613ff5600d83613102565b915061400082613fbf565b602082019050919050565b6000602082019050818103600083015261402481613fe8565b9050919050565b7f44494420766572696669636174696f6e206661696c6564000000000000000000600082015250565b6000614061601783613102565b915061406c8261402b565b602082019050919050565b6000602082019050818103600083015261409081614054565b9050919050565b7f49504653206861736820616c7265616479207573656400000000000000000000600082015250565b60006140cd601683613102565b91506140d882614097565b602082019050919050565b600060208201905081810360008301526140fc816140c0565b9050919050565b6000815461411081613514565b61411a8186613102565b94506001821660008114614135576001811461414b5761417e565b60ff19831686528115156020028601935061417e565b61415485613702565b60005b8381101561417657815481890152600182019150602081019050614157565b808801955050505b50505092915050565b600060208201905081810360008301526141a18184614103565b905092915050565b7f4f776e657220616c7265616479206861732061207265636f7264000000000000600082015250565b60006141df601a83613102565b91506141ea826141a9565b602082019050919050565b6000602082019050818103600083015261420e816141d2565b9050919050565b7f556e617574686f72697a65640000000000000000000000000000000000000000600082015250565b600061424b600c83613102565b915061425682614215565b602082019050919050565b6000602082019050818103600083015261427a8161423e565b9050919050565b7f5573657220646f6573206e6f7420686176652061636365737300000000000000600082015250565b60006142b7601983613102565b91506142c282614281565b602082019050919050565b600060208201905081810360008301526142e6816142aa565b9050919050565b6000815490506142fc81613514565b9050919050565b60008190508160005260206000209050919050565b8181036143265750506143fe565b61432f826142ed565b67ffffffffffffffff81111561434857614347612e1b565b5b6143528254613514565b61435d828285613821565b6000601f83116001811461438c576000841561437a578287015490505b6143848582613892565b8655506143f7565b601f19841661439a87614303565b96506143a586613702565b60005b828110156143cd578489015482556001820191506001850194506020810190506143a8565b868310156143ea57848901546143e6601f891682613874565b8355505b6001600288020188555050505b5050505050505b56fea26469706673582212206ff3a9503e8736ad42fc46e0074ae9ccc212bc34aa4cbe39720edf52556ff13164736f6c634300081c0033",
  "linkReferences": {},
  "deployedLinkReferences": {}
}